S043000001000100050001000203000000000000000000000000000000000000071F19006C3C03000002010C00000000000000000000000000000000A7ADF149E1BCEFE8B4
S3150C01000001000100050001000203000000000000D0
S3150C010010000000000000000000000000071F19008E
S3150C0100206C3C03000002010C000000000000000003
S3150C0100300000000000000000A7ADF149E1BCEFE8AB
S3150C01020000D0FF1F01040108A5300308218D020847
S3150C01021099040108990401089904010800000000D9
S3150C0102200000000000000000000000009904010815
S3150C010230990401080000000099040108C5D10208BF
S3150C0102409904010899040108990401089904010803
S3150C0102509904010875C90208990401089904010851
S3150C01026099040108000000000000000000000000D5
S3150C0102709904010800000000B99E020899040108BE
S3150C01028099040108990401089904010899040108C3
S3150C010290990401089904010885D3FF1F099F0208D7
S3150C0102A099040108990401089904010899040108A3
S3150C0102B09904010899040108499F0208899F0208BB
S3150C0102C09904010899040108990401089904010883
S3150C0102D09904010899040108990401089904010873
S3150C0102E09904010899040108990401089904010863
S3150C0102F0990401089904010861AF0208A9B0020822
S3150C01030061CA0208D1CA020869CB0208B9CB020834
S3150C0103109904010899040108990401089904010832
S3150C0103209904010899040108990401089904010822
S3150C01033099040108990401089904010891B002086D
S3150C0103409904010899040108990401089904010802
S3150C01035099040108990401089904010899040108F2
S3150C01036099040108990401089904010899040108E2
S3150C0103709904010895E001088DD1FF1F9904010824
S3150C01038099040108990401089904010899040108C2
S3150C01039099040108990401089904010899040108B2
S3150C0103A099040108990401084D1A01081D1A01083E
S3150C0103B0211B0108990401089904010899040108F3
S3150C0103C0000000000000000000000000000000001A
S3150C0103D00000000000000000990401080000000064
S3150C0103E09904010899040108000000009904010808
S3150C0103F09904010800000000000000000000000044
S3150C0104001D4885461D4880471D4C1E4DAC4209DAD8
S3150C01041021686268A368043BA2BFC858D050FAE7AA
S3150C0104200C34F3E7184B194CA34208DA19685A68CD
S3150C0104300020043AA4BF8850FBE70833F4E71448BC
S3150C0104408047144880470000A41B040CB8FBFF1F0F
S3150C010450C8220000ECEF030C00D0FF1FB82B0000E4
S3150C010460801E0020949B000014BA0020000000009E
S3150C01047014BA00200000000000D0FF1FA9230108B8
S3150C01048048040108600401086004010878040108A5
S3150C010490E1800308158D0208FEE7000010B5054C36
S3150C0104A0237833B9044B13B10448AFF3008001230D
S3150C0104B0237010BD801E002000000000E8EF030829
S3150C0104C008B5034B1BB103490348AFF3008008BDC4
S3150C0104D000000000841E0020E8EF03082DE9F04718
S3150C0104E0D1E90034002603EB83033E4D4FEA430E5C
S3150C0104F042F21077B0464FF0010C19E0013202EBD3
S3150C01050082094FEA4909B3FBF9F39C4294BF1B1BC1
S3150C010510E31A142A07D8BB4205D2B3F57A7F1DD349
S3150C0105201F461646E0460CF1010CBCF1410F17D0E3
S3150C010530BEFBFCF3B3FBF4FAA5FB0A92D20802EB61
S3150C0105408209AAEB4909B9F1050FD7D8BAF1090FF6
S3150C010550D5D8A5FB0323DB080122D6E71646E046D0
S3150C0105600C89214B42F2107E4FF0010C40220AE01D
S3150C010570774501D29446BE46013AA3F51C53022A8D
S3150C010580A3F1100309D0B3FBF6F5AC42A5EB0407B6
S3150C010590EED9641B744538BF94464A89013A08F171
S3150C0105A0FF389201D2B208F03F0842EA08080CF172
S3150C0105B0FF32B31E120202F47062A3EB0C0348EA7B
S3150C0105C002081B03026803F4E04348EA030342F002
S3150C0105D0400202600361036823F040030360BDE837
S3150C0105E0F08700BFCDCCCCCC10EB0900D0F8C431D0
S3150C0105F013F4407FFAD10131130443EA016343F04A
S3150C0106000203C0F8C431704738B504461448154680
S3150C01061001F028F9124801F0E7F8236823F00103E9
S3150C010620236023689B07FCD401F00AF9E36823F4E1
S3150C010630434323F0FF03E36040F2FF31B0FBF5F3D4
S3150C010640C3F58063E2688B4228BF0B461A4342F41A
S3150C0106508042C3F58063E260B0FBF3F038BD00BFA6
S3150C0106601000001003689A69920010B49C690DD4AD
S3150C0106708A0422F0604204F0604422439A61436882
S3150C0106805DF8044B61F31C034360704721F0604233
S3150C01069004F0604C4CEA02029A61F0E70368DA68EE
S3150C0106A092000DD49A6992000AD4DA6802F060427B
S3150C0106B042EA8142DA60836861F31C038360704706
S3150C0106C010B4DC6821F0604204F0604C4CEA020282
S3150C0106D0DA6083685DF8044B61F31C038360704731
S3150C0106E00368996821F47F4130B403F1384299606B
S3150C0106F09C68A2F5A832D100920A44EA423C01F464
S3150C010700F85242EA0C029A60027E012A01D930BCE7
S3150C0107107047C17920248906DC6114D44168856847
S3150C01072001F0604444EA814405F0604141EA8541A7
S3150C0107309C61D960012A0BD0114A4FF40061D96131
S3150C01074030BCDA617047D0E901419C61D960F1E7AF
S3150C0107502022DA61027B19681206D0E9045421F0D1
S3150C010760706102F070620A431A600648064A1D61FE
S3150C0107704FF000615C61D861D961DA61C7E700BFEE
S3150C0107804006A00040002800C0002006037E012B75
S3150C01079001D00320704730B402682023D361037B58
S3150C0107A011681B06D0E9045403F0706321F07061E3
S3150C0107B00B431360034B15610020546130BCD361AC
S3150C0107C0704700BF400028000368D969DA698906B9
S3150C0107D009D5C2F30020D20503D44FF0E062DA61E9
S3150C0107E07047022070470420704700BF0368DA691E
S3150C0107F0D969120554D44A0744D4F0B4082727E022
S3150C010800C479C17A62F34514C4719A694468C2F316
S3150C0108108A4262F31C044460DA68520F62F3451192
S3150C0108208D06C17230D5DA688168C2F38A4262F3E9
S3150C0108301C01816019681E695D69DC69DA696407E6
S3150C010840C0E9046502F00802C1F3036122D50AB3BB
S3150C010850DF619A6912F00052D2D0C279816842F0F6
S3150C0108602002C2719C69426864F31C024260DA6818
S3150C01087062F31C018160DA68C17A520F62F3451189
S3150C010880C172D7E702207047D968826861F31C02EE
S3150C0108908260CFE7002301730376F0BC18467047DC
S3150C0108A00320704782B0019101689DF805300A68F2
S3150C0108B09DF806C09DF8040022F00F0242F00102D9
S3150C0108C00A604A681B0243EA0C43034302F07F4267
S3150C0108D013434B6002B0704738B5044610200D46E1
S3150C0108E000F0BAFF184B9C4219D0184B9C421DD0F4
S3150C0108F0174B9C4221D0174B9C4209D04FF4807365
S3150C010900E360236823F4404343EA8533236038BD0F
S3150C010910114800F0A7FF104800F066FFEEE704202F
S3150C01092000F0A0FF042000F05FFFE7E7082000F0CD
S3150C01093099FF082000F058FFE0E7102000F092FF25
S3150C010940102000F051FFD9E700C000400000014023
S3150C010950004001400040004801000010036823F0EC
S3150C010960300343EA01110160704700BF4B790A68F5
S3150C01097010B59C46C3F340131B0591F804E0426184
S3150C0109804A7943600B790EF00F040CF00F01C2F398
S3150C01099000121B09446201628261C36210BD00BF71
S3150C0109A0436823F00303194341604369012A0CBFD1
S3150C0109B043F4806323F480634361704770B54B1E27
S3150C0109C0DBB215315FFA81FC5900C9B2547805685E
S3150C0109D001F1100E5FFA8EFE032604FA0EF406FAE6
S3150C0109E00EFE25EA0E0E44EA0E0492F802E00125EB
S3150C0109F00EFA0CFE05FA0CFC24EA0C0C1931C9B2E0
S3150C010A004EEA0C0C92F803E012788E409B00DBB296
S3150C010A102CEA060C0EFA01F10F249A4041EA0C015C
S3150C010A2004FA03F321EA03031343036070BD00BF09
S3150C010A30836A23F4706343EA01238362416270473C
S3150C010A40092930B4D0F8A8300DD8094C094D54F801
S3150C010A50214055F82110C943A2400B401A4330BC22
S3150C010A60C0F8A82070476FF440510C24F4E700BF7E
S3150C010A70E89303081094030838B5044610200D4674
S3150C010A8000F0EAFE0F4B9C420CD00F4B9C4210D04F
S3150C010A904FF48073E360236823F4404343EA8533C0
S3150C010AA0236038BD802000F0DDFE802000F09CFE26
S3150C010AB0EEE74FF4807000F0D5FE4FF4807000F035
S3150C010AC093FEE5E70000024000400240036823F074
S3150C010AD0300343EA01110160704700BF4B7B0A6882
S3150C010AE010B5C3F3001391F80CE001241B05046146
S3150C010AF042610EF00F0443604FEA1E134A7B4462B7
S3150C010B00C362D1E9011302F00F0283F014030262EE
S3150C010B108161836410BD00BF436823F0030319434D
S3150C010B2041604369012A0CBF43F4806323F480635B
S3150C010B304361704710B4446824F00C0444EA810400
S3150C010B40446043695DF8044B23F4407343EA022283
S3150C010B5042617047436823F4405343EA01314160D3
S3150C010B60704700BF30B444689DF8085024F4402CFB
S3150C010B704CEA814141604169012A0CBF41F0807107
S3150C010B8021F0807145B141F4000121F0C05141EAD7
S3150C010B90C36330BC4361704721F40001F5E700BF24
S3150C010BA0436823F4404343EA81314160704700BFF7
S3150C010BB0436823F4407343EA01214160704700BF47
S3150C010BC0436823F4406343EA81214160704700BFC7
S3150C010BD0436843F480334360704700BF436843F472
S3150C010BE00033436043694AB143F4001301290CBF36
S3150C010BF043F4800323F480034361704723F4001309
S3150C010C00F4E700BF036891F801C023F4402343EADB
S3150C010C108C4392F801C023F4401343EA0C5391F828
S3150C010C2002C023F4000343EACC5392F802C023F02A
S3150C010C30807343EA0C6391F803C0097823F0C0531F
S3150C010C4043EACC6392F803C0127823F0C04343EA1B
S3150C010C504C7323F0F00343EA011323F4706343EA64
S3150C010C6002230360704700BF70B54B1EDBB2153112
S3150C010C705FFA81FC5900C9B25478056801F1100E6E
S3150C010C805FFA8EFE032604FA0EF406FA0EFE25EA28
S3150C010C900E0E44EA0E0492F802E001250EFA0CFE41
S3150C010CA005FA0CFC24EA0C0C1931C9B24EEA0C0CEF
S3150C010CB092F803E012788E409B00DBB22CEA060C0C
S3150C010CC00EFA01F10F249A4041EA0C0104FA03F3DE
S3150C010CD021EA03031343036070BD00BF41637047F0
S3150C010CE0836A23F4706343EA01238362416270478A
S3150C010CF009B9C26370474264704700BF092930B411
S3150C010D00D0F8A8300DD8094C094D54F8214055F8A6
S3150C010D102110C943A2400B401A4330BCC0F8A8208D
S3150C010D2070476FF440510C24F4E700BF609403083C
S3150C010D303894030810B4D1E901420B680465426585
S3150C010D405DF8044BC364704770B5054616460C46F0
S3150C010D5000F09AFCD6E900262B68A0000F218140F1
S3150C010D600434824023EA010313432B6045F82460C3
S3150C010D7070BD00BF70B50C4616460546083400F02A
S3150C010D8083FC336845F8243070BD00BF10B50446AA
S3150C010D9082B04FF4000000F01BFD4FF4000000F090
S3150C010DA023FD4FF4000000F05DFD344B44F64E225A
S3150C010DB062612068D3E9001240F480709B68206060
S3150C010DC022F4F0422E4842F4C04221F4F04123F4BD
S3150C010DD0F04343F4C043C0F8402B41F4C0413F22D9
S3150C010DE0C0F8403CC0F8401A226200F019FD254BB0
S3150C010DF0254A0344934207D9244B254A034493427B
S3150C010E0031D84FF4003101E04FF44031236E0B43DE
S3150C010E102366236E002243F0010323660192019B94
S3150C010E20B3F5E14F07D800BF019B01330193019B39
S3150C010E30B3F5E14FF7D96369002243F4802363616B
S3150C010E400092009BB3F5E14F07D800BF009B01331D
S3150C010E500093009BB3F5E14FF7D9236FDB0709D557
S3150C010E60002002B010BD0B4B0344934202D84FF441
S3150C010E708031CBE7022002B010BD00BFD4FF0020A9
S3150C010E80000002407FE2D3FB7FC3C901FF1E0AFAB1
S3150C010E907FF0FA027F2E0FF7D1E90023026043603F
S3150C010EA0704700BF10B5036823F0030303600268A3
S3150C010EB00B78134303604B78012B04BFCB7843F0BB
S3150C010EC0400C8B7818BF4FF0000C012B04D10B7919
S3150C010ED04CEAC30343F4807C8468CA7991F806E032
S3150C010EE0240C24048460130343EA8E22836813437F
S3150C010EF043EA0C038360C2684C79097A22F4803286
S3150C010F0022F00702C260C368234343EA0143C3606C
S3150C010F1010BD00BF10B5036823F00C030360036812
S3150C010F200A7843EA820303604B78012B02BFCB7824
S3150C010F301B0443F4800C8B7818BF4FF0000C012B6B
S3150C010F4004D10B794CEAC34343F0807C8468CA799B
S3150C010F5091F806E0A4B28460130743EA8E628368B3
S3150C010F60134343EA0C038360C2684C79097A22F471
S3150C010F70003222F03802C260C368234343EA41437C
S3150C010F80C36010BD38B50D46044600F03BF86B79CD
S3150C010F9093B92B79296802222046C3B900F07AF855
S3150C010FA06B790D4961634FF4A262A2634BB9AB79BC
S3150C010FB043F00B03E36304E0074A62634FF4A26355
S3150C010FC0A3632B894FF0FF32E264236438BD00F032
S3150C010FD0A9F86B79E5E700BF02013F0738B50C4666
S3150C010FE0054600F02DFCB4EB500F01D9012038BD9C
S3150C010FF002222146284600F04DF8003818BF012080
S3150C01100038BD00BF38B5204B9842044627D003F5AE
S3150C0110100073984223D01D4B98420DD003F50073F3
S3150C011020984209D00323E360E368DB07FCD5236C04
S3150C01103023F00F03236438BD1548154D00F012FC3F
S3150C011040284600F01BFC0028FAD11148104D00F07F
S3150C011050CBFB284600F0D4FB0028FAD1E2E74FF48B
S3150C011060006000F0FFFB4FF4006000F007FC002865
S3150C011070F9D14FF4006000F0B7FB4FF4006000F0BB
S3150C011080BFFB0028F9D1CDE7000003400000024860
S3150C01109080000010632906D92DE9F047924622B942
S3150C0110A00120BDE8F087012070470D46064600F089
S3150C0110B0C7FB1A4CA4FB0030A4FB05344009640998
S3150C0110C040F2FF374FF001080AFB04F4C0EB802C09
S3150C0110D0C1463946BCFBF4F3B3F5801FC3F3090EC5
S3150C0110E04FEA9325ACEB000C04D2774502D989461D
S3150C0110F07746A8460139EDD149F400433361746949
S3150C011100074B0AF1FF32234008F1FF3843EA8223E9
S3150C01111043EA084308467361BDE8F0871F85EB5126
S3150C011120EF8000FCF8B50E461446054600F088FB28
S3150C01113004FB06F188423ADD90FBF1F240F2FE37F0
S3150C011140BA4236D94A00012390FBF2FCBC459E46B5
S3150C0111500A4403F10103F7D84FEA0E4E0CFB03F2D6
S3150C01116004FB03F30CFB0333B0FBF3F3F31A04FB9D
S3150C01117002F2002BB0FBF2F0A6EB0000B8BF5B420B
S3150C0111800028B8BF40428342B8BF0CF1010CCCF524
S3150C011190806C4CF480432B616A69084B013C13400B
S3150C0111A043EA842444EA0E046C610020F8BD012054
S3150C0111B0F8BD94464FF0000E0123D1E7EF8000FCF9
S3150C0111C030B4D0F8084124F0E064C0F80841D0F8F6
S3150C0111D00851054C41EA02622C4042EA032323439F
S3150C0111E0C0F8083130BC7047C0C0FFF830B4D0F835
S3150C0111F00C51094C25F0E065C0F80C51D0F80C5196
S3150C0112002C40214341EA026242EA032343F0805314
S3150C01121030BCC0F80C317047C0C0FFEFD0F80831B4
S3150C0112204FF0070C0CFA01FC23EA0C038A4013431A
S3150C011230C0F80831704700BFD0F80C314FF0070CDD
S3150C0112400CFA01FC23EA0C038A401343C0F80C3157
S3150C011250704700BF38B50D460446012000F002FB6D
S3150C011260012000F0C1FA6B686A69A8682260D5E9A9
S3150C011270031243F40043C4F880302B68C4F8A00071
S3150C011280C4F8A410C4F88022C4F8B83038BD00BF25
S3150C011290D0F880300B4943F0004301F1100CC0F833
S3150C0112A0803051F8043BD3F8802012F4403F03D12F
S3150C0112B06145F6D1704700BFD3F88020D200FAD42D
S3150C0112C0F6E700BF8894030841EA0242C0F8B82049
S3150C0112D0704700BFD0F8A03091F805C00A790CF020
S3150C0112E0070C23F4E06343EA0C2302F01F0223F0FC
S3150C0112F01F031343C0F8A030D0F8A03091F807C0F3
S3150C0113008A790CF0070C23F0E06343EA0C6302F0D4
S3150C0113101F0223F4F81343EA0243C0F8A030D0F8B5
S3150C011320A43091F809C00A7A0CF0070C23F4E06397
S3150C01133043EA0C2302F01F0223F01F031343C0F8E8
S3150C011340A430D0F8A42091F80BC08B7A0CF0070CC2
S3150C01135022F0E06242EA0C6203F01F0322F4F81257
S3150C01136042EA034291F803C0CB6830B50C69B1F877
S3150C01137002E0C0F8A4200A78C0F88040CEF3090137
S3150C01138002F0070242EA0142C0F8B830C0F8F02177
S3150C011390CCF38013D0F8F021CCF300159B0743EA6C
S3150C0113A00573CCF381041343CCF3401C43EA8463E9
S3150C0113B043EA4C7343F00043C0F8F03130BD00BF33
S3150C0113C0D0F8803023F003031943C0F8801070471E
S3150C0113D0D0F8B83041EA024203F0F0231A43C0F8C0
S3150C0113E0B8207047F0B53A4F3A4ED7F884303A4D9B
S3150C0113F03A4C23F08063C7F88430D6F8843023F056
S3150C0114008063C6F88430D5F8843023F08063C5F840
S3150C0114108430D4F8843023F08063C4F884300B789C
S3150C011420D7F8842013F0030C0CBF4FF0000E4FF4C9
S3150C011430006EC3F381034EEA032322F440721A436E
S3150C011440C7F88420D6F8842022F440721A43C6F8D1
S3150C0114508420D5F8842022F440721A43C5F88420DE
S3150C011460D4F8842022F440721343C4F88430D1E9B1
S3150C011470013243F4000343F4004342F00102BCF190
S3150C011480020FC0F80032C0F8042205D1D0F804329C
S3150C01149043F48033C0F804320D480E4AD0F8843038
S3150C0114A00D4943F08063C0F88430D2F8843043F0A0
S3150C0114B08063C2F88430D1F8843043F08063C1F87C
S3150C0114C08430D2F8843843F08063C2F88438F0BD96
S3150C0114D00044004000480040004C004000500040D1
S3150C0114E0D0F8843023F08073C0F88430D0F884208F
S3150C0114F00B7822F0030CC3F3810213F0030342EAC7
S3150C0115000C0220D030B4D1E9014544F0802442F0DC
S3150C011510080244F4000445F00105022BC0F88420AE
S3150C011520C0F80041C0F8045105D1D0F8043143F498
S3150C0115308033C0F80431D0F8843043F0807330BC6A
S3150C011540C0F884307047D1E9013143F0802343F46C
S3150C011550000341F00101C0F88420C0F80031C0F845
S3150C0115600411D0F8843043F08073C0F8843070478E
S3150C011570D0F888304FF0010C0CFA01FC23EA0C0C64
S3150C01158010B4137B8B4043EA0C03C0F8883092F9F4
S3150C0115900D30002B0FDB012920D069BBD0F8B040F0
S3150C0115A024F01F04C0F8B0400C46A340D0F8B0405C
S3150C0115B02343C0F8B0305468D0F8C8302343C0F880
S3150C0115C0C8309468D0F8D030126880312343C0F803
S3150C0115D0D0305DF8044B40F821207047D0F8B0406C
S3150C0115E024F4F854C0F8B0400824A340D0F8B04015
S3150C0115F02343C0F8B030DEE70024F6E7D0F8A0317B
S3150C01160089004FF00F0C0CFA01FC23EA0C038A40FB
S3150C0116101A43C0F8A021704707290DD8D0F8B0316C
S3150C01162089004FF00F0C0CFA01FC23EA0C038A40DB
S3150C0116301A43C0F8B02170470839D0F8B431890083
S3150C0116404FF00F0C0CFA01FC23EA0C038A401A43E7
S3150C011650C0F8B421704700BF38B5094D04462020A7
S3150C01166000F0FAF8284600F0FDF8284600F0BCF820
S3150C011670044BA2685A6062681A6122685A6138BDC5
S3150C011680020000200080005008B5074B984200D09C
S3150C01169008BD4FF4803000F0E5F8BDE808404FF482
S3150C0116A0803000F0A1B800BF0040044001F0FC03FB
S3150C0116B0034430B501F0030E1C694FEACE0E4FF010
S3150C0116C0F80C0CFA0EFC24EA0C041C61446F4D0058
S3150C0116D04FF0030C0CFA05FC24EA0C044467194C74
S3150C0116E0A0421FD004F58074A0421BD092F9004091
S3150C0116F092F800C0002C1FDA54688C404460CC0868
S3150C01170000EB840001F00701046C890007258D406C
S3150C01171024EA05040464127A02FA01F1026C1143FB
S3150C011720016409E0046E4FF0010C0CFA01F124EA94
S3150C0117300101016692F800C019690CFA0EF20A430E
S3150C0117401A6130BD008E0248034AD2F88C3023F060
S3150C0117500103C2F88C30704700400050024BD3F89D
S3150C0117609000C0F38030704700400050084B084A87
S3150C011770D3F88C00D3F890301B04D2F88C3043F09C
S3150C011780020354BF00F001000220C2F88C307047EE
S3150C01179000400050054BD3F88C20D2075ABFD3F822
S3150C0117A09000C0F309006FF00040704700400050F4
S3150C0117B0024BD3F89000C0F3C03070470040005084
S3150C0117C0024A936E23EA000090667047004100506E
S3150C0117D0030F044A03EB430320F0704042F8230045
S3150C0117E0704700BF10440050030F044A03EB430338
S3150C0117F020F0704042F82300704700BF144400509B
S3150C011800030F064A03EB430352F82330184030F01A
S3150C011810704314BF01200020704700BF0C440050D8
S3150C011820054B06491A6908681B6A02F001029040C9
S3150C01183003F00103D840704700460050C0FF00205A
S3150C011840034B044A5B69106803F00103D8407047E7
S3150C01185000460050C0FF0020014B5860704700BF86
S3150C01186000460050030F044A03EB430320F070407B
S3150C01187042F82300704700BF48460050030F064A42
S3150C01188003EB430352F82330184030F0704314BF76
S3150C01189001200020704700BF4046005008B5FFF7F5
S3150C0118A053FFFFF75BFF0028FBD0BDE80840FFF7AD
S3150C0118B05DBF00BF0000000010B50446FFF778FFBE
S3150C0118C008B1002010BDFFF765FF6FF417731844BC
S3150C0118D025F0B0FE06A3D3E9002326F03FF826F047
S3150C0118E0ADF92060FFF742FF012010BDAFF3008078
S3150C0118F066666666666600402DE9F0411D4C1E4E15
S3150C01190084B004F5F07700254FF0800817E0227BB0
S3150C011910637B8DF804802AB3002B14BF4FF0010CA6
S3150C0119204FF4803C217A6068337001AA1034CDF8EB
S3150C01193008C0FFF7BBFEBC4206F101060FD02378A7
S3150C0119400395012BCDE9015501AAE0D0217A6068F6
S3150C0119501034FFF7ABFEBC4206F10106EFD104B021
S3150C011960BDE8F081002B0CBF4FF0010C4FF4803C0D
S3150C011970D8E700BF989403089C1E00201D280CD89C
S3150C011980084B010103EB00125B5C43B95168137AF6
S3150C011990486AD84000F00100704700207047024B9E
S3150C0119A0185C7047989403089C1E00201D2808D8C3
S3150C0119B0114B4FEA001C03EB001213F80C30012BF0
S3150C0119C000D07047137B92F808C010B4546863B109
S3150C0119D0002914BF01234FF48033084A03FA0CF390
S3150C0119E0636011545DF8044B704700290CBF012349
S3150C0119F04FF48033F1E700BF989403089C1E002036
S3150C011A001D29844605D8044B03EB01110FC98CE83B
S3150C011A100F006046704700BF9894030800B583B069
S3150C011A20002308488DF807300DF1070100F0FAFC88
S3150C011A3020B1054B9DF80720C3F8802103B05DF852
S3150C011A4004FB00BF4C1F00200000024810B5074CD8
S3150C011A500748D4F81C11C9B200F0BEFCD4F80C31FD
S3150C011A6043F0C043C4F80C3110BD00BF000002485E
S3150C011A70BC1E00200168124A01238B40013BC2E9BE
S3150C011A8000339160D0E901134FF0000C82F810C0BD
S3150C011A90D160C26803B98AB100B545F6C05185B0AB
S3150C011AA001FB03F301FB02F201A80121CDE901328D
S3150C011AB00391FFF7D1FD05B05DF804FB704700BF3C
S3150C011AC0DC1F0020054B9A68824205D91A68012150
S3150C011AD001FA00F002431A60704700BFDC1F0020B8
S3150C011AE0BFF35F8F064BD3E90012914204D0DA683B
S3150C011AF00121197412B1104700221A60704700BFF8
S3150C011B00DC1F0020014B024A9A607047008000508E
S3150C011B10FECAADAB014B187C704700BFDC1F002021
S3150C011B20484AF8B5D36C484C43F00503D364D2F854
S3150C011B301431180700F18380D4F818316FF00F00B7
S3150C011B401033001B2344D2F81C1103F8011BD2F8E5
S3150C011B501411090700EB0305F5D5C4F81851E06813
S3150C011B60A84245D93749D4F81461D1F81431D4F8BF
S3150C011B701C21C3F30663861BD31A9E4232D886B93F
S3150C011B80304B9A6B4FF4004122F440629A63C3F8CE
S3150C011B9018112C4A936B23F4406343F480639363CB
S3150C011BA0F8BD284D731E042228462021FFF71EFB83
S3150C011BB0D4F81421AB6BA76823F44063013AAB63E9
S3150C011BC03A444FF40043C5F818319019134612F8EC
S3150C011BD0011FC5F880110233DB1B8242C4F8143194
S3150C011BE0F4D1D6E7D1F81401C0F30660161AC6E78C
S3150C011BF014482168D0F80C21144B22F0C042C0F8CD
S3150C011C000C218A7803EB02139B7B5BB14B78104A50
S3150C011C1003EB83039B00D118D258097901238B401E
S3150C011C205360F8BD4B780A4A03EB83039B00D1182A
S3150C011C30D25809794FF480338B405360F8BDD4F8F0
S3150C011C4018518CE700020248F01F0020DC960308AD
S3150C011C50FC96030870B52D4C2D492E4D2E4E204663
S3150C011C60FFF790F9636B23F0706343F0E0636363F2
S3150C011C70636B43F47C136363E36B43F00043E363ED
S3150C011C80636923F0504343F080436361E36923F0B6
S3150C011C90500343F01003E361E36923F0070343F0B8
S3150C011CA00303E361636B43F001036363E36B23F0AB
S3150C011CB00403E363236C23F00F0343F00103236452
S3150C011CC005F1440230460121FFF7F0FC05F15802FB
S3150C011CD00A213046FFF7EAFC284600F0A1F928460E
S3150C011CE000F04AF9284600F0FDF90446284600F0B2
S3150C011CF0FFF90A4B0A4A844228BF0446C3F81C4121
S3150C011D0030460C21BDE87040FFF7D0BC00020248FA
S3150C011D10DC9603087896030800800248F01F002021
S3150C011D200497030870B5284B01784FF44D7202FBEA
S3150C011D3001330446827893F82001904200D170BD9C
S3150C011D40642000FB01F1214883F820214558204EDF
S3150C011D5012012846B158FFF741F9A278EB6B110134
S3150C011D6006EB021223F004039079127B0343EB6317
S3150C011D70032A09D8DFE802F0211C15026B6923F04E
S3150C011D80504343F080436B610E44737B23B16B6B01
S3150C011D9043F001036B6370BD6B6B23F001036B6343
S3150C011DA070BD6B6923F0504343F040436B61EBE725
S3150C011DB06B6923F050436B61E6E76B6923F0504383
S3150C011DC043F000436B61DFE7F01F002078960308B0
S3150C011DD0DC96030870B5304D4FF44D7484B004FB9A
S3150C011DE00050694600F5927002F0B4F8029BB3F507
S3150C011DF0827F02D9002004B070BD0098067806FBDC
S3150C011E0004F4FFF78FFF0098285164232A192349FC
S3150C011E10039D5560002406FB03F3C2E94544019C6E
S3150C011E209460CB58029CD4604FF40042C3F818213D
S3150C011E304FF48042C3F818218478194A02EB041234
S3150C011E40927BE2B14278174802EB82029200841827
S3150C011E50805824794FF48032A2404260642202FBFE
S3150C011E600611D3F80C018C6A40F0C0404FF4803255
S3150C011E70C3F80C01A24001209A6604B070BD4278E9
S3150C011E80084802EB820292008418805824790122B8
S3150C011E90A2404260E2E700BFF01F002078960308DB
S3150C011EA0DC960308FC96030810B5FFF7D3FE07482A
S3150C011EB04FF0000C80F821C100F59A71BDE8104075
S3150C011EC02023102200F5927002F01CB8F01F00209E
S3150C011ED0024B00EB40001844704700BFB8FBFF1FD4
S3150C011EE0A1B100B585B090F800C0009008480393E5
S3150C011EF0CDE901124FF44D7202FB0C00694600F557
S3150C011F00927002F009F805B05DF804FB08467047BB
S3150C011F10F01F002010B5164C94F82131012B19D065
S3150C011F20022B01D073B110BDD4F81821E3689A4283
S3150C011F30F9D3636813B104F1100098470D4802F008
S3150C011F4027F818B1012384F8213110BDBDE81040E2
S3150C011F50FFF740BF04F5927002F01AF80028E2D19F
S3150C011F60FFF738FF0028DED0022384F8213110BD9B
S3150C011F70F01F00201421002038B5044600283DD05E
S3150C011F80057C0DB9284638BD027F016A006801231C
S3150C011F90FFF716F920684FF40043C0F8183194F98D
S3150C011FA01130002BEED062691021FFF737F9194B6E
S3150C011FB094F91110DA68A369C2F30222C2F107047B
S3150C011FC0062C28BF062402B1013A4FF0FF30A0407F
S3150C011FD023EA0003002903FA02F312DB0E4A9B00E3
S3150C011FE05018DBB280F800330123480901F01F01B8
S3150C011FF003FA01F142F82010284638BD0546284659
S3150C01200038BD064A01F00F019B000A44DBB2137678
S3150C012010B8E700BF00ED00E000E100E0FCEC00E0F9
S3150C01202038B5044600284CD090F824500DB92846F2
S3150C01203038BD90F83020416B00680023FFF7D6F8C5
S3150C01204020684FF48043C0F8183194F92530002BE1
S3150C012050EDD0D0F80C31A26A43F0804343F0130360
S3150C012060C0F80C311021FFF7E7F8A26A206813219A
S3150C012070FFF7E2F8184B94F92510DA68E36AC2F314
S3150C0120800222C2F10704062C28BF062402B1013A2A
S3150C0120904FF0FF30A04023EA0003002903FA02F3B4
S3150C0120A012DB0E4A9B005018DBB280F80033012379
S3150C0120B0480901F01F0103FA01F142F820102846E4
S3150C0120C038BD0546284638BD054A01F00F019B006F
S3150C0120D00A44DBB21376AAE700ED00E000E100E06A
S3150C0120E0FCEC00E0007F012202FA00F0704700BF11
S3150C0120F090F83000012202FA00F0704772B60C4BD0
S3150C0121000C4A9A60BFF34F8F62B6D3F888200A49FE
S3150C01211042F47002C3F888205A6922F008025A6107
S3150C0121204B6923F00F0343F003034B61704700BF68
S3150C01213000ED00E00002010800200058004870473D
S3150C012140001BB7001C4BDB68D90310B519D51B4B0B
S3150C012150DB69DA072CD51A4818490B695B0720D5B8
S3150C0121608C698B698A69C2F30642C3F30621C4F3EF
S3150C012170036C01320CFB0223B0FBF3F301FB0333BB
S3150C01218000E00F4B0C4A0F49D0681269C0B202F03D
S3150C012190010201300132B3FBF0F3B3FBF2F30B6036
S3150C0121A010BD8B6903F07F030133B0FBF3F3E9E751
S3150C0121B0FFF7C4FFD0E700BF0046005000470050B0
S3150C0121C000366E01C0FF002010B56D4A1368DC079E
S3150C0121D086B006D4536843F0010353601368D807DD
S3150C0121E0FCD5684B1A68910511D59A68002142F401
S3150C0121F000729A600191019B41F64B52934206D8AB
S3150C01220000BF019B01330193019B9342F8D95E49AF
S3150C0122104B69002043F400234B610290029B40F66C
S3150C012220C312934206D800BF029B01330293029B51
S3150C0122309342F8D9544C636923F4803323F0020397
S3150C0122406361636813F0300F7CD14F4B5A6942F0CE
S3150C01225001025A611A69D207FCD55A694B4942F0F7
S3150C01226010025A6199615A69474942F040025A6112
S3150C0122705A6922F010025A615A6942F480225A6153
S3150C0122800B695C07FCD54B693F4A23F001034B6193
S3150C012290136913F00103FBD13D49C868032440F4CB
S3150C0122A08030C8604B610B610B624B628C61536968
S3150C0122B0384823F04003536101F5807190610B6935
S3150C0122C09806FCD500230393039B40F6B732934241
S3150C0122D006D800BF039B01330393039B9342F8D9A2
S3150C0122E0294A2D4B936113699906FCD50023049356
S3150C0122F0049B41F29312934206D800BF049B01330F
S3150C0123000493049B9342F8D91F4A244B9361136996
S3150C0123109B06FCD500230593059B41F26F729342F4
S3150C01232006D800BF059B01330593059B9342F8D94B
S3150C0123301B49174B05200022C8665A60FFF702FF9E
S3150C01234006B010BD636823F4702323F03003636079
S3150C012350FFF7F4FE134BA3FB00231B0D6268013B35
S3150C01236042EA034300226360E261636923F40033AA
S3150C0123706361236903F46073B3F5607FF9D164E794
S3150C012380004200500044005000470050004F13011A
S3150C01239000460050004F0701004F0401004F030196
S3150C0123A0004100506BCA5F6B10B50A4B4FF00052DF
S3150C0123B003F1040E03F1140C02F184040FCA8EE826
S3150C0123C00F0094E807008CE80700FFF797FEFFF76C
S3150C0123D0FBFE10BDC0FF002018B3027BFAB910B486
S3150C0123E0438884684FF0010C80F80CC0E154438893
S3150C0123F0C18863449BB28B42438028BF428082884A
S3150C012400531C9BB29942838003D203888280013389
S3150C0124100380002303735DF8044B012070470020F1
S3150C0124207047704700B3F9B1037BEBB98288E2B10F
S3150C01243010B4028884684FF0010C80F80CC0A25CC1
S3150C0124400A70028881885DF8044B6244B0F806C0B4
S3150C01245092B29445028098BF03800023037301391D
S3150C012460012381801846704700231846704700BF28
S3150C01247082B002AB03E903009DF8020002B000F042
S3150C0124809BBA00BF054B82B01B7802AA02E9030076
S3150C0124900BB902B0704702B000F088BA04250020CF
S3150C0124A0054B82B01B7802AA02E903000BB902B0F4
S3150C0124B0704702B026F088BF04250020064B82B077
S3150C0124C01B7802AA02E903000BB902B070479DED15
S3150C0124D0010A02B000F0C0BA04250020064B82B0F6
S3150C0124E01B7802AA02E903000BB902B070479DF8EA
S3150C0124F0020002B000F00EBA0425002082B002AB35
S3150C01250003E903009DED010A02B000F083BA00BF96
S3150C012510064B82B01B7802AA02E903000BB902B082
S3150C01252070479DF8020002B000F0B6B904250020F0
S3150C012530064B82B01B7802AA02E903000BB902B062
S3150C01254070479DF8020002B000F06EB90425002018
S3150C01255082B002AB03E90300BDF8020002B000F041
S3150C01256013B900BF82B002AB03E9030002B026F037
S3150C0125700BBF00BF10B582B000240094164A174950
S3150C0125804FF48063204600F0B5FA154A00945023A7
S3150C0125901449204600F0BEFA1349204600F00CFB04
S3150C0125A0124B1349134A144C1448C3E9001214492B
S3150C0125B01961C3E9024013491348144A9A61144C30
S3150C0125C0144A5C61C3E907015A6200F0B7F8124B71
S3150C0125D001221A7002B010BD1825002010970308AD
S3150C0125E0242300201C9703082C970308742300202E
S3150C0125F06525010851250108312501081125010818
S3150C012600FD24010885240108A1240108DD24010803
S3150C012610BD240108712401080425002030B50020D1
S3150C01262083B000F081FA20B903B0BDE8304000F068
S3150C012630A1B9144C144D2178C1F10802D2B2294426
S3150C012640002000F07FFA23781844C0B208282070C5
S3150C012650EAD195E803000D4B83E803001B886A4613
S3150C012660632B82E8030006D8094951F8233013B1CC
S3150C01267092E8030098470023237003B0BDE830406D
S3150C01268000F078B90525002010250020082500202A
S3150C0126907423002063289CBF014B43F8201070471C
S3150C0126A07423002030B5B5EEC00AF1EE10FA85B0F0
S3150C0126B0054627DA10D41E4B93E803006C460090AE
S3150C0126C0ADF80410A446BCE80F00286028466960E2
S3150C0126D0AA60EB6005B030BDBDEEC07ADFED156AC0
S3150C0126E01549F8EEC77A6C4637EEC00A17EE102A72
S3150C0126F020EE260A2046FDEEC07A17EE903A26F019
S3150C01270069F9DFE7FDEEC07A9FED0A7A0A49F8EE20
S3150C012710E76A17EE902A30EE660A6C4620EE070A37
S3150C0127202046FDEEC07A17EE903A26F053F9C9E72A
S3150C012730749703080000C8426C97030800B583B070
S3150C01274000230093044A054942F21073012000F05C
S3150C012750D1F903B05DF804FB1C2D00207C9703080E
S3150C0127607F2806D8034B03EBC00C43F83010CCF88A
S3150C0127700420704718290020014B1860704700BFD0
S3150C012780182D0020000000002349244A0B7D10B4AB
S3150C0127905BB97F28136805D8214951F830400CB133
S3150C0127A00F2B13D95DF8044B70479FED197B002352
S3150C0127B07F280B7582ED007B82ED027B4B604B759E
S3150C0127C0F0D8174951F83040002CEBD001EBC00082
S3150C0127D003C8DC1C02EBC40484E80300D4689068CB
S3150C0127E08C42084438BF0C4603F101031360B0FB5D
S3150C0127F0F4F304FB130338BFD160002B9060C4BF04
S3150C0128000019C01A5DF8044B50607047AFF3008095
S3150C01281000000000000000005CFCFF1FC0FBFF1F56
S3150C012820182900200000000003282BD8184970B580
S3150C0128304D6835B3174C00222275267D626042F233
S3150C0128401073B3FBF5F305FB03F3C4E90222A28370
S3150C01285023613EB19FED0C7B81ED007B81ED027B0B
S3150C01286022756275002240F2011581F89A00A1F8D1
S3150C01287098502078114600F023FA00220123627544
S3150C012880237570BD704700BF0000000000000000FA
S3150C012890C0FBFF1F5CFCFF1F032834D81A4A516882
S3150C0128A089B3D2ED047A9FED197A194B67EE877AC3
S3150C0128B070B4FCEEE77A00241C7542F21075B5FB78
S3150C0128C0F1F501FB05F51D611E7D9C8317EE905AF2
S3150C0128D0C3E90244B5FBF1F1596046B11C750025FB
S3150C0128E05C605C750024C2E90045C2E90245002121
S3150C0128F04FF48074597582F89A000121A2F8984018
S3150C012900197570BC70477047C0FBFF1F00401C4611
S3150C0129105CFCFF1F154B1A7D32BB032824D802F031
S3150C012920FF01134A70B45568E5B11E7D998342F2D5
S3150C0129301074B4FBF5F405FB04F4C3E902111C6134
S3150C01294046B100240025C2E90045C2E902451975C4
S3150C0129505960597500210124597582F89A00A2F81B
S3150C01296098101C7570BC7047704700BF5CFCFF1F4C
S3150C012970C0FBFF1F38B50C4C637F83B9237F03B9AA
S3150C01298038BDD4E90221236920780025257700F08A
S3150C01299097F9A168207826F0F3FC257738BD00F06D
S3150C0129A077F900236377E9E75CFCFF1F014B0122F2
S3150C0129B01A7770475CFCFF1F78B101280CD19FED8B
S3150C0129C0107B114B114900221A7581ED007B81EDAB
S3150C0129D0027B5A755A60704770479FED097B0B4A0B
S3150C0129E0094B82ED007B82ED027B094A1875126850
S3150C0129F058755860002AEFD0104700BFAFF300801E
S3150C012A0000000000000000005CFCFF1FC0FBFF1F64
S3150C012A10182D00200E4B1A7D52B10E4A00200021B2
S3150C012A20C2E90001C2E9020100221A755A605A75FF
S3150C012A30F7EE007AB4EEE70AF1EE10FA07D8B5EE26
S3150C012A40C00AF1EE10FAC4BF024B83ED040A7047BB
S3150C012A505CFCFF1FC0FBFF1F164B1A7D62B9F7EE1C
S3150C012A60007AB4EEE70AF1EE10FA134A17DDB0EE6E
S3150C012A70670A82ED050A70470F4AF7EE007A0021C4
S3150C012A800020B4EEE70AC2E90001C2E90201F1EE47
S3150C012A9010FA4FF00001197559605975E7DCB5EE5E
S3150C012AA0C00AF1EE10FAE4D59FED040A82ED050A8F
S3150C012AB0704700BF5CFCFF1FC0FBFF1F000000003E
S3150C012AC00B4B1A7C02B9704710B5DA681968D0F845
S3150C012AD000E05C68406841F802E001EB020C083248
S3150C012AE0A242DA60CCF8040024BF121BDA6010BDD6
S3150C012AF02C540020012809D8054900EB800041F827
S3150C012B00202001EB800001220274436001207047F2
S3150C012B105C54002020B90349C1E900230120087443
S3150C012B20012070472C54002040B9054B187C30B15C
S3150C012B309A68D868801A18BF012070470020704720
S3150C012B402C5400202DE9F0431A4D00EB800305EBC4
S3150C012B5083079C00FE68BB68B3424FEA800827D006
S3150C012B60F2B1013A55F804907F688C1801F1FF3CDB
S3150C012B7001E0A44514D019F803E0013362469F42E3
S3150C012B8008BF00230232B3420CF801EFA2EB01029B
S3150C012B90EFD1404405EB80051046AE60BDE8F083ED
S3150C012BA0404405EB80051E461046AE60BDE8F08339
S3150C012BB00022EEE72C5400202DE9F041174F00EBD3
S3150C012BC08002864607EB82024FEA80080878D468B1
S3150C012BD082B088B18C4605E0166830551CF8010F99
S3150C012BE01C4638B155689668631C9D4208BF002384
S3150C012BF09E42F1D1ACEB0100094BC64407EB8E07A3
S3150C012C001B78FC6013B102B0BDE8F081019026F08F
S3150C012C10E3FB019802B0BDE8F08100BF5C540020D3
S3150C012C20405400200EB470B5C5B049AA04A852F898
S3150C012C30041B039225F07EFF134A9DF81040D168C0
S3150C012C4084B10DF1100C05E015686C541CF8014F9C
S3150C012C5019463CB1566895684B1CB34208BF002314
S3150C012C609D42F1D1094BD1601B7823B145B0BDE82A
S3150C012C70704003B07047019026F0AEFB019845B049
S3150C012C80BDE8704003B070475C54002040540020EE
S3150C012C9030B5094C83B00822012501A9A0188DF87D
S3150C012CA004501AF0FDFA054B63602146022065704B
S3150C012CB00BF03CF803B030BD4454002001F0411C2C
S3150C012CC010B4054C00EB800004EB80005DF8044B5E
S3150C012CD08160C260436070475C540020704700BF3E
S3150C012CE0402901D90020704738B54FF48C7205463E
S3150C012CF00C46002125F053FA034B85F80841C5E92A
S3150C012D004333012038BD00BFDD2C010890F8083192
S3150C012D108B4214D970B5D0F80C3104460D46984740
S3150C012D20D4E90023012101FA05F52A4343EAE575A5
S3150C012D30C4E90025D4F81031BDE870401847704736
S3150C012D40D0E9002313430CBF01200020704700BFBC
S3150C012D5038B5D0E9002313431AD0D0F80C31044608
S3150C012D600D469847D4E9003053EA000212D00BBB4A
S3150C012D7001F0C0F82030C1B22368012088406FEA07
S3150C012D80000C23EA000360680A4600EAEC7003E0D3
S3150C012D90002038BDFF2211462970C4E9003004EB2E
S3150C012DA082020023916869609360D4F810319847C8
S3150C012DB0012038BD184601F09DF8DCE7C0E9003169
S3150C012DC08260704730B584680368B1F90020DCB3C2
S3150C012DD004FB02F204F1FF3C03EB820EBCF1050F7E
S3150C012DE0CEF3800031D908B143F822100244251ADA
S3150C012DF003EB82034FEA550C002201326245C3E90B
S3150C012E00001103F10803F8D125F001039D42184482
S3150C012E101AD0431C9C424EF8201015D94EF823109B
S3150C012E20831C9C4210D94EF82310C31C9C420BD90F
S3150C012E304EF82310031D9C4206D9053084424EF8E8
S3150C012E40231088BF4EF8201030BD0020E1E700BFEB
S3150C012E5010B4B1F90010846804FB013301685DF804
S3150C012E60044B41F82320704730B4D0E9003584680F
S3150C012E7045B103EB8202A00000230133AB42116082
S3150C012E800244FAD130BC704710B48468036804FB61
S3150C012E9001215DF8044B53F821007047D0ED007AFF
S3150C012EA0D0ED016A30EE677AE7EE267AB0EE670A64
S3150C012EB0C0ED007A704700BFD0ED006AF4EEC06A2F
S3150C012EC0F1EE10FA02DB90ED010A704701F10053A5
S3150C012ED0013B00EBC303D3ED007AF4EEC07AF1EEBD
S3150C012EE010FA02D893ED010A7047022990ED027A85
S3150C012EF01BD9B4EEC70AF1EE10FA16DD023918BF6A
S3150C012F00012302D111E08A420AD2DAB2531C00EB38
S3150C012F10C30C9CED007AB4EEC07AF1EE10FAF2D441
S3150C012F2000EBC200D0ED006A01E000F1080C70EE76
S3150C012F30667A37EE667A90ED010AC7EE876ADCEDA2
S3150C012F40017A77EEC07AA6EEA70A7047D0ED007A21
S3150C012F50F4EEC07A2DE9F047F1EE10FA089C31DA5D
S3150C012F601D6800EB850616ED017AB4EEC07AF1EE1A
S3150C012F7010FA5BDD05F1FF38B8F1010F4FEA580C79
S3150C012F8040F2E88047464FF0000E00EB8C05D5ED7C
S3150C012F90007AB4EEE70A07EB0C050EEB0C06F1EE24
S3150C012FA010FAA7EB0C0AACEB0E094FEA55054FEAE2
S3150C012FB0560600F18380BAF1010FE64640F2B08065
S3150C012FC0AC46E2E718689FED657A002700F1FF38F9
S3150C012FD0BE46D1ED007AF4EEE07AF1EE10FA31DB71
S3150C012FE05E689FED5E6A013E73460025C64579D043
S3150C012FF0174402EB830197ED000AD1ED017A77EEC6
S3150C013000C07AB542A7EE870A0ED0234402EB83029F
S3150C013010D2ED007AD2ED016A76EEE76AE6EE877AB0
S3150C01302077EEC07AA7EE860ABDE8F087D1ED007A75
S3150C013030F4EEE70AF1EE10FA05F1FF3E4AD99FEDDF
S3150C013040477AF0465E6801EB860353ED016AF4EEAE
S3150C013050E06AF1EE10FA06F1FF361FDD012E4FEA9A
S3150C013060560373D93746002501EB8300D0ED007A60
S3150C013070F4EEE70AF81805EB030CF1EE10FAA7EBE0
S3150C013080030AA3EB05094FEA50004FEA5C0C1BD46B
S3150C013090BAF1010F1D4630D90346E5E7C64504FBD7
S3150C0130A006E44ED002EB840393ED000AD3ED017ACC
S3150C0130B077EEC07AA7EE870ABDE8F087B9F1010F62
S3150C0130C02ED96746B44660E7B9F1010F15D91F46EB
S3150C0130D06346C9E75E689FED216A4FEA8E07013E9A
S3150C0130E0734600251744B54297ED000A9CD023443C
S3150C0130F002EB8302D2ED007A92E701EB8503A8007D
S3150C013100D3ED007A043005FB04E30144D1ED006AEA
S3150C01311070EEE70A76EEE77A9F0080EEA76A65E71E
S3150C01312000EB8E054FEA8E07D5ED007A3D1D28443E
S3150C01313090ED007A30EE670A77EE677A80EE277AA1
S3150C01314047E702EB840494ED000A6DE7734604200D
S3150C0131500025DAE700270425BE46E8E70000000053
S3150C0131602DE9F04F984E377883B004468B4691463D
S3150C0131700FB3EFF311834FF0200181F3118804EBA8
S3150C013180440706EBC7070093D7F82C80B8F1010F5B
S3150C0131904FEA440500F0B180B8F1020F6CD0B8F1DA
S3150C0131A0000F42D04FF00008009B83F31188404674
S3150C0131B003B0BDE8F08F07F0FF052946782206F12A
S3150C0131C0300024F0ECFF03213161804A71614FF428
S3150C0131D080607F49B261F16130627E49B562756288
S3150C0131E0F562326650227166B2663567F5667567A9
S3150C0131F0BFF35F8F452047274FF0530C86F800C06D
S3150C013200522170705422B770F77030712020717191
S3150C013210B071F17132727272B572F5723573757372
S3150C013220B573F573BFF35F8FA3E7BA6AD7F824A01A
S3150C01323052459CBF396A5218013AA2EB0A029145D2
S3150C013240B2D8254406EBC50501342F6AA7EB0A084B
S3150C01325004EB4404C14506EBC40680F0A0807068FB
S3150C013260594650444A4624F072FFBFF35F8F09EB6F
S3150C0132700A036B62C84697E7013404EB44047D6A82
S3150C0132804FEAC40A4FF00008BB6AAB4203F1FF34A4
S3150C01329026D93A6A641B4C4506EB0A012346A2EB76
S3150C0132A0050428BF4B469C42486828BF1C46284447
S3150C0132B05946224624F04BFF3B6A25449D42A044C5
S3150C0132C0A344A9EB040910D0BFF35F8F7D62B9F15A
S3150C0132D0000F3FF469AFBB6AAB4203F1FF34D8D898
S3150C0132E03A6A1344013B5C1BD5E7BFF35F8F00259C
S3150C0132F07D62B9F1000FC7D156E7BA6AD7F824A097
S3150C01330052451FD902F1FF38A8EB0A083F6AC84596
S3150C01331028BFC846A7EB0A02904521D2631C03EBD2
S3150C013320430306EBC303594658684246504424F0FE
S3150C0133300EFFBFF35F8F2C4406EBC4060AEB0802A3
S3150C013340726231E73F6A02EB070808F1FF38A8EB16
S3150C0133500A08C84528BFC846A7EB0A029045DDD323
S3150C01336004F1010909EB490906EBC9095946D9F8D2
S3150C01337004000192504424F0EAFEA8EB0707019AD7
S3150C013380D9F8040057440BEB02013A4624F0DFFE50
S3150C013390BFF35F8F2C4406EBC406776204E77068B3
S3150C0133A009EB0A04424659465044E41B24F0CFFE6D
S3150C0133B070680BEB0801224624F0C9FEBFF35F8F40
S3150C0133C06C62C846F0E600BF84540020909703084F
S3150C0133D07C5500202C55002010B511461C461A466A
S3150C0133E00020FFF7BDFE204610BD00BF20B1002313
S3150C0133F04FF0FF32C0E90032704700BF58B138B503
S3150C013400054B99420D4600D938BD044619F0E8FE24
S3150C013410C4E9000538BD70470080CBA410B504463D
S3150C01342019F0DEFE014BC4E9000310BD0080CBA4EC
S3150C013430D0B14368013310B5044613D019F0D0FE50
S3150C0134402168884203460DD036BFC943591AC9189B
S3150C0134502360606800F036FD0346B0FA80F06360C5
S3150C013460400910BD002010BD0020704709B34B6800
S3150C01347070B50C46B3B19B6808689847636883427C
S3150C013480054609D021685B68022098476B6821685C
S3150C01349065600020984765686B6821680120BDE866
S3150C0134A0704018474268096860601846904765681D
S3150C0134B0F2E7704700B14068704700BF84B02DE950
S3150C0134C0F04D08AC84E80F000CAE174C08AFB046B3
S3150C0134D04FF0000A4FF0000B57F8045B0021284609
S3150C0134E065B1337803EB8302402B4FEA820216D87F
S3150C0134F0C4E900ABC4E9025324F051FE474504F17B
S3150C013500100406F10106E7D1DDE90D02BDE8F04D27
S3150C0135100649074B08601A60012004B07047BDE8E4
S3150C013520F04D002004B0704780590020C05900208E
S3150C013530C4590020402809D8054B9A6832B100EBD2
S3150C013540800302EB830301209960704700207047CA
S3150C0135508059002084B00DF1100C40280CE90E00A6
S3150C0135600ED80A4B9A6A72B100EB800302EB830008
S3150C013570DDE90223C0E902120361012004B07047A0
S3150C013580002004B07047104604B0704780590020E3
S3150C01359082B002AB402803E906000CD8094B9A69A4
S3150C0135A062B100EB800302EB8300019BC0E90213BD
S3150C0135B0012002B07047002002B07047104602B0DD
S3150C0135C0704700BF805900202DE9F84FA84CE168DF
S3150C0135D0002941D00023DFF8A082A64F1D464FF0EB
S3150C0135E0010A05E0E1680135EDB28D422B4633D275
S3150C0135F0A26803EB830B02EB8B020AFA05F99368BB
S3150C013600002BF0D09847A5F12006C5F120020AFA45
S3150C01361006F62AFA02F216430028E3D0D4E9003260
S3150C01362003EA090002EA06010143DBD1D8F80010CE
S3150C01363011B18847D4E900321643A268396849EAC0
S3150C0136400303C4E9003652F82B30013342F82B3010
S3150C0136500029C7D08847C5E7E36A002B75D000233C
S3150C013660DFF814921D461F4611E0A36A5CEA0102BB
S3150C013670534458D11B6923B1984710B1A36A5344DB
S3150C0136805F60E26A0135EDB295422B465DD2A26AC4
S3150C01369003EB830B02EB8B034FEA8B0A9A6872B32B
S3150C0136A09047A5F120060122C5F1200122FA01F16C
S3150C0136B002FA06F602FA05F8236A626A0E4303EA6F
S3150C0136C0080C02EA06010028CFD05CEA0101D8D128
S3150C0136D0D9F8001011B18847D4E9083248EA030336
S3150C0136E01643C4E90836A26A624B196852F82B30A4
S3150C0136F0013342F82B300029C3D08847C1E7012298
S3150C013700A5F12006C5F1200122FA01F102FA06F60D
S3150C0137100E43216A02FA05F808EA010C616A314086
S3150C0137205CEA0102A6D0D9680029A3D0884748B122
S3150C013730D4E9081301EA080C03EA06005CEA000264
S3150C01374040F0D880A36A534494E7E369002B00F058
S3150C01375084800023474F1D464FF0010B08E05CEABD
S3150C0137600E0364D0E2690135EDB295422B4674D253
S3150C013770A26903EB830902EB89024FEA890A936872
S3150C013780002B3FD09847A5F12006D4E90412C5F1C8
S3150C01379020030BFA06F62BFA03F31E430BFA05F874
S3150C0137A001EA080C02EA060E0028D8D15CEA0E03DF
S3150C0137B0D8D0A2695244D268002AD3D090470028A7
S3150C0137C0D0D0D4E9041201EA080C02EA06005CEA3C
S3150C0137D00003C7D0284B186810B18047D4E90412EE
S3150C0137E021EA080322EA0602C4E90432A3693A680B
S3150C0137F09A44DAF804300133CAF80430002AB1D0FD
S3150C0138009047AFE72269A5F12006C5F120030BFA13
S3150C01381005F82BFA03F308EA020C0BFA06F66269B1
S3150C0138201E4306EA020E5CEA0E039BD0C1E7124B5D
S3150C013830186810B18047D4E9041248EA01013243F1
S3150C013840C4E90412A269396852F82930013342F8E5
S3150C0138502930002986D0884784E7E16B002947D0B7
S3150C0138600023DFF81480034F1D464FF0010A0BE0CD
S3150C01387080590020C4590020C0590020E16B013544
S3150C013880EDB28D422B4633D2A26B03EB830B02EBCB
S3150C0138908B020AFA05F99368002BF0D09847A5F12B
S3150C0138A02006C5F120020AFA06F62AFA02F2164396
S3150C0138B00028E3D0D4E90C3203EA090002EA060136
S3150C0138C00143DBD1D8F8001011B18847D4E90C3289
S3150C0138D01643A26B396849EA0303C4E90C3652F85C
S3150C0138E02B30013342F82B300029C7D08847C5E766
S3150C0138F0BDE8F88FD9F8000010B18047D4E9081358
S3150C01390021EA080123EA0603C4E90813A36A064A55
S3150C013910534411685A6801325A6000293FF4AAAE21
S3150C0139208847A36A5344A5E6C4590020024B03EB0E
S3150C0139300010D0E900017047805900200C4B0201A0
S3150C01394003EB001030B49D5844680122A1F1200309
S3150C013950C1F1200022FA00F002FA03F303438A4074
S3150C0139602A402340134314BF0120002030BC70476A
S3150C01397080590020054B020103EB00109A5843684D
S3150C013980134314BF01200020704700BF805900204B
S3150C01399070B50D4E336803B198470C4D0C4C002392
S3150C0139A00022C4E908232B6803B19847336803B195
S3150C0139B098472B6800200021C4E9000113B1BDE82A
S3150C0139C07040184770BD00BFC0590020C459002073
S3150C0139D080590020134B1B6870B5044603B19847F8
S3150C0139E0114B0121A4F12002C4F1200021FA00F0AF
S3150C0139F001FA02F202431868A140014319600B490E
S3150C013A0098680D68596804EB8404A4000A435A604B
S3150C013A100359013303511DB12B46BDE870401847BC
S3150C013A2070BD00BFC059002080590020C459002028
S3150C013A30134B1B6870B5044603B19847114B012112
S3150C013A40A4F12002C4F1200021FA00F001FA02F2DD
S3150C013A500243186AA140014319620B49986A0D6821
S3150C013A60596A04EB8404A4000A435A6203590133CC
S3150C013A7003511DB12B46BDE87040184770BD00BF00
S3150C013A80C059002080590020C4590020144B1B68D2
S3150C013A9010B5044603B19847124B0122A4F120003C
S3150C013AA0C4F1200102FA00F022FA01F140EA010CFC
S3150C013AB018680D49A24020EA020298681A6004EBC4
S3150C013AC0840400EB8404086862685968013221EAAF
S3150C013AD00C015960626010B1BDE81040004710BD81
S3150C013AE0C059002080590020C4590020034BD3E94A
S3150C013AF00023134314BF0120002070478059002076
S3150C013B000122A0F12003C0F1200110B4084C22FAC5
S3150C013B1001F102FA03F30B43D4E90014824023406A
S3150C013B200A40134314BF012000205DF8044B704773
S3150C013B3080590020134B1B6870B5044603B1984796
S3150C013B40114B0121A4F12002C4F1200021FA00F04D
S3150C013B5001FA02F202431869A140014319610B49AA
S3150C013B6098690D68596904EB8404A4000A435A61E7
S3150C013B700359013303511DB12B46BDE8704018475B
S3150C013B8070BD00BFC059002080590020C4590020C7
S3150C013B90144B1B6810B5044603B19847124B01220E
S3150C013BA0A4F12000C4F1200102FA00F022FA01F17D
S3150C013BB040EA010C18690D49A24020EA02029869F3
S3150C013BC01A6104EB840400EB840408686268596981
S3150C013BD0013221EA0C015961626010B1BDE8104055
S3150C013BE0004710BDC059002080590020C45900203F
S3150C013BF00122A0F12003C0F1200110B4084C22FAD5
S3150C013C0001F102FA03F30B43D4E904148240234075
S3150C013C100A40134314BF012000205DF8044B704782
S3150C013C2080590020014BD3E90401704780590020CB
S3150C013C3010B52DED028B044682B080B1D0ED097A18
S3150C013C40B7EE007AC7EE276AD0ED087AB2EE046AAF
S3150C013C5067EE867AF4EEE67AF1EE10FA04DD0020D0
S3150C013C6002B0BDEC028B10BDC2EE217A002380F8A6
S3150C013C702C309FED188A80ED060A77EE877A20EEB6
S3150C013C80088AFCEEE77A78EE606AF8EE677AC0EDA0
S3150C013C90070A86EEA70A80ED081AC0ED091A80ED0F
S3150C013CA00A2A8DED010A00F065F89DED010A204600
S3150C013CB000F0A8F894ED070A204600F09DF8B0EE46
S3150C013CC0480A204600F092F8012002B0BDEC028BA6
S3150C013CD010BD00BFF704B53F90ED060ADFED027A81
S3150C013CE020EE270A00F082B8F704B53F38B5044632
S3150C013CF02DED028B0D46B0EE408A00F089F894F852
S3150C013D002C00B0EEC88A30B9CDB1012384F82C3021
S3150C013D10BDEC028B38BD1DB10020BDEC028B38BD4C
S3150C013D20B4EEC80AF1EE10FA18D99FED110A204625
S3150C013D3000F030F80028EFD084F82C50EDE7D4EDE4
S3150C013D40077AB2EE047A77EE877AB4EEE78AF1EE69
S3150C013D5010FAE1DD012384F82C30D9E7B0EE480ADC
S3150C013D60204600F043F8BDEC028B284638BD00BF57
S3150C013D700000000050B1064B036100214FF0FF42D9
S3150C013D80016041608260C26043610120704700BFDF
S3150C013D90000080BFF0B190ED007AD0ED017A30EEE3
S3150C013DA0070A9FED117A30EE670AD0ED037AB4EE6D
S3150C013DB0C70AF1EE10FA48BFB0EE470AF4EEC07A24
S3150C013DC04CBF80ED007A80ED000AF1EE10FA90ED11
S3150C013DD0057A01D501207047B4EEC07AF1EE10FADE
S3150C013DE0CCBF0120002070470000000010B180ED0F
S3150C013DF0000A0120704700BF10B180ED050A0120B1
S3150C013E00704700BF10B180ED010A0120704700BF59
S3150C013E1010B190ED000A70479FED010A704700BF83
S3150C013E200000C07FB0B3D0ED007A90ED037AF4EECA
S3150C013E30C77AF1EE10FA23DCD0ED056AF4EEE67AD8
S3150C013E40F1EE10FA1CD490ED026AF4EEC67AF1EE9C
S3150C013E5010FA09D8D0ED045AF4EEE57AF1EE10FA1F
S3150C013E6002DBB7EE000A7047F4EEC67AF1EE10FAF1
S3150C013E7009DD37EE466AB5EE406AF1EE10FA18D155
S3150C013E809FED0E0A704790ED047AF4EEC77AF1EEC7
S3150C013E9010FA02D49FED0A0A704736EEC77AB5EED0
S3150C013EA0407AF1EE10FAEBD076EEE77A87EE870AD6
S3150C013EB0704777EE677A87EE860A70470000000036
S3150C013EC00000C07F401A2CBF4FF0FF33002318406F
S3150C013ED0704700BFB4EEE00AF1EE10FA07D4B4EE67
S3150C013EE0C10AF1EE10FAC8BFB0EE410A7047B0EE46
S3150C013EF0600A704790FAA0F0B0FA80F000F01F004B
S3150C013F00704700BF10B4002404608480C1605DF862
S3150C013F10044B0381C2807047828803899A4201D37C
S3150C013F200020704710B50446C288E368408802FB3E
S3150C013F30003024F00CF96388228901339BB29A4232
S3150C013F4063809CBF00236380A38801200344A38064
S3150C013F5010BD00BF10B50446808800B910BDE288BB
S3150C013F6020880B46E16802FB0011184624F0EFF895
S3150C013F7023882189A28801339BB29942238002F1BD
S3150C013F80FF3298BF0023A28098BF2380012010BD69
S3150C013F908088B0FA80F04009704700BF014488421E
S3150C013FA036D21C4B4FF0FF3210F801CB8CEA0202D1
S3150C013FB042F3000C0CEA030C8CEA520C4CF3000293
S3150C013FC01A4082EA5C0C4CF300021A4082EA5C024B
S3150C013FD042F3000C0CEA030C8CEA520242F3000C7D
S3150C013FE00CEA030C8CEA520C4CF300021A4082EADE
S3150C013FF05C0C4CF300021A4082EA5C0242F3000CA0
S3150C0140000CEA030C81428CEA5202CDD1D0437047A3
S3150C014010002070472083B8ED034B1B681A786FF3A9
S3150C01402082021A70704700BFCC59002038B50B4C70
S3150C01403023681A786FF341021A7000B938BD084D1E
S3150C014040FC212846FFF7AAFFD5F8FC309842F5D09B
S3150C0140502268137843F00103137038BDCC59002044
S3150C01406090FCFF1F10B50E4CFC2182B02046FFF7C9
S3150C01407095FF0C4BC4F8FC001A681378590701D547
S3150C01408002B010BD084943F00403137001200091DE
S3150C0140904FF480732246032101F05EFE02B010BD7F
S3150C0140A090FCFF1FCC590020194001080B4B1A68D4
S3150C0140B013789907C3F3400000D5704700B583B058
S3150C0140C0074943F0020313700091064A4FF48073BB
S3150C0140D0032101F041FE03B05DF804FBCC5900202D
S3150C0140E02D40010890FCFF1F094B1B681B781B0711
S3150C0140F001D40020704710B5064C204601F0E8FEAD
S3150C01410018B9208900F00F0010BD002010BD00BFAA
S3150C014110CC59002090FCFF1F10B50F4C0346FC2117
S3150C01412082B020462381FFF739FF0C4BC4F8FC0003
S3150C0141301A681378590701D502B010BD084943F026
S3150C01414004031370012000914FF48073224603215E
S3150C01415001F002FE02B010BD90FCFF1FCC590020ED
S3150C0141601940010810B50E4C22681378990782B0D4
S3150C014170C3F3400007D513780A4813F0080F08BF9C
S3150C014180002002B010BD084943F002031370054A22
S3150C01419000914FF48073032101F0DEFD2268EAE7FA
S3150C0141A0CC59002090FCFF1F2D40010810B5114C75
S3150C0141B001464FF4807282B0204623F0C8FFFC21E1
S3150C0141C02046FFF7EBFE0C4BC4F8FC001A6813787B
S3150C0141D0590701D502B010BD084943F00403137009
S3150C0141E0012000914FF480732246032101F0B4FDA6
S3150C0141F002B010BD90FCFF1FCC59002019400108DC
S3150C01420030B5184C83B0F822FF2104F1080023F0D5
S3150C014210C6FF4FF4807500220423FC21204622811F
S3150C01422023606560FFF7BAFE0F4BC4F8FC001B68F0
S3150C0142301A78510705D5012003B0BDE8304008F0C6
S3150C01424047B90A4942F004021A70012000912B4623
S3150C0142502246032101F080FD012003B0BDE8304068
S3150C01426008F036B990FCFF1FCC5900201940010803
S3150C014270034A034603CA186059601846704700BFC3
S3150C01428090FCFF1F38B5164C237803B138BD154D7C
S3150C0142902A68137843F008031370012008F012F909
S3150C0142A02B68187800F0010008F042F92B681B788E
S3150C0142B01B070BD40025012008F010F9284609F03C
S3150C0142C0ADFE09F0B3FE0123237038BD064D284619
S3150C0142D001F0FEFD0028EDD12D8905F00F05EAE769
S3150C0142E0C8590020CC59002090FCFF1F014B1860C7
S3150C0142F0704700BFCC590020034B1B681A786FF32B
S3150C01430082021A70704700BFD459002038B50B4C85
S3150C01431023681A786FF341021A7000B938BD084D3B
S3150C014320FC212846FFF73AFED5F8FC309842F5D029
S3150C0143302268137843F00103137038BDD459002059
S3150C01434090FDFF1F10B50F4CFC2182B02046FFF7E4
S3150C01435025FE0D4BC4F8FC001A6813785807C3F3F5
S3150C014360800101D502B010BD084843F00403137057
S3150C01437000904FF480732246012001F0EDFC02B04F
S3150C01438010BD00BF90FDFF1FD4590020F942010852
S3150C0143900B4B1A6813789807C3F3400100D5704785
S3150C0143A000B583B0074843F0020313700090064A28
S3150C0143B04FF48073084601F0CFFC03B05DF804FBA3
S3150C0143C0D45900200D43010890FDFF1F034B1868BB
S3150C0143D010B10078C0F3C000704700BFD45900205B
S3150C0143E0044B186828B10378034813F0080F08BF6B
S3150C0143F000207047D459002090FDFF1F30B5154C95
S3150C01440004F108030A460025014683B018462561C6
S3150C014410C4E90255C4F8135023F099FEFC21204639
S3150C014420FFF7BCFD0C4BC4F8FC001A68137858074F
S3150C014430C3F3800101D503B030BD084843F0040332
S3150C014440137000904FF480732246012001F084FC16
S3150C01445003B030BD90FDFF1FD4590020F94201086D
S3150C0144600048704798FDFF1F10B5174C04F1170C47
S3150C01447000230A4682B001466046C4F81730C4F8D8
S3150C0144801B30C4F81F30A4F8233023F060FEFC2146
S3150C0144902046FFF783FD0D4BC4F8FC001A68137810
S3150C0144A05807C3F3800101D502B010BD084843F08B
S3150C0144B00403137000904FF480732246012001F01F
S3150C0144C04BFC02B010BD00BF90FDFF1FD45900205C
S3150C0144D0F942010800487047A7FDFF1F10B5164C9D
S3150C0144E000230A4682B0014604F12500C4F82D309A
S3150C0144F0C4F82530C4F82930236323F028FEFC21A7
S3150C0145002046FFF74BFD0D4BC4F8FC001A681378D7
S3150C0145105807C3F3800101D502B010BD084843F01A
S3150C0145200403137000904FF480732246012001F0AE
S3150C01453013FC02B010BD00BF90FDFF1FD459002023
S3150C014540F942010800487047B5FDFF1F30B5154CFF
S3150C01455004F134030A460025014683B01846C4E922
S3150C0145600D55E563A4F8405023F0F1FDFC212046DE
S3150C014570FFF714FD0C4BC4F8FC001A6813785807A6
S3150C014580C3F3800101D503B030BD084843F00403E1
S3150C014590137000904FF480732246012001F0DCFB6E
S3150C0145A003B030BD90FDFF1FD4590020F94201081C
S3150C0145B000487047C4FDFF1F10B5164C00230A4670
S3150C0145C082B0014604F14200C4F84A30C4F84230C4
S3150C0145D0C4F84630C4F84D3023F0B9FDFC21204611
S3150C0145E0FFF7DCFC0C4BC4F8FC001A68137858076F
S3150C0145F0C3F3800101D502B010BD084843F0040392
S3150C014600137000904FF480732246012001F0A4FB35
S3150C01461002B010BD90FDFF1FD4590020F9420108CC
S3150C01462000487047D2FDFF1F10B5124C0A4682B0E6
S3150C014630014604F1510023F08AFDFC212046FFF7C7
S3150C014640ADFC0D4BC4F8FC001A6813785807C3F37C
S3150C014650800101D502B010BD084843F00403137064
S3150C01466000904FF480732246012001F075FB02B0D5
S3150C01467010BD00BF90FDFF1FD4590020F94201085F
S3150C01468000487047E1FDFF1F10B5104C0346FC2195
S3150C01469082B0204684F85F30FFF780FC0C4BC4F8DF
S3150C0146A0FC001A6813785807C3F3800101D502B0D0
S3150C0146B010BD084843F00403137000904FF4807347
S3150C0146C02246012001F048FB02B010BD90FDFF1FF0
S3150C0146D0D4590020F942010810B5124C01464FF489
S3150C0146E0807282B0204623F032FDFC212046FFF772
S3150C0146F055FC0D4BC4F8FC001A6813785807C3F324
S3150C014700800101D502B010BD084843F004031370B3
S3150C01471000904FF480732246012001F01DFB02B07C
S3150C01472010BD00BF90FDFF1FD4590020F9420108AE
S3150C014730014B93F85F00704790FDFF1F10B52B4B93
S3150C014740817944790278595C1C5D9A5C90F804C0B5
S3150C01475086B013F80CC08DF81210017A8DF80C2066
S3150C0147608DF811404278C479595C9A5C1C5D8DF8C0
S3150C014770141000218DF813408DF81610447AC17867
S3150C0147808DF80D2082781C5D9A5C5B5C8DF810C0EF
S3150C0147908DF815408DF80F308DF80E2006AB13E908
S3150C0147A00700134C04F1080303C323F8022B100C66
S3150C0147B01870FC212046FFF7F1FB0E4BC4F8FC00E8
S3150C0147C01A6813785807C3F3800101D506B010BDDA
S3150C0147D0094843F00403137000904FF4807322468A
S3150C0147E0012001F0B9FA06B010BD00BF9C97030871
S3150C0147F090FDFF1FD4590020F9420108A04B1A7AEB
S3150C014800A2F14101C9B2192906D9A2F161011929ED
S3150C01481000F2CF80473AD1B293F809C0994AACF16C
S3150C0148204100C0B21928117011D9ACF161011929D5
S3150C01483040F2C980ACF13001092940F2E380BCF1A8
S3150C0148402B0F00F01081BCF12F0F77D13F2093F87D
S3150C0148500AC05070ACF14101C9B2192911D9ACF198
S3150C0148606101192940F2B380ACF13001092940F2FA
S3150C014870D180BCF12B0F00F0F880BCF12F0F5DD16C
S3150C0148803F21D87A9170A0F14101C9B2192957D8A3
S3150C014890187BD170A0F14101C9B219295FD8587B97
S3150C0148A01171A0F14101C9B2192966D8987B5171D0
S3150C0148B0A0F14101C9B219296DD8D87B9171A0F12A
S3150C0148C04101C9B219290FD9A0F16101192940F287
S3150C0148D09580A0F13001092940F2B0802B2800F017
S3150C0148E0BA802F282AD13F21187CD171A0F1410120
S3150C0148F0C9B219290FD9A0F16101192940F2868093
S3150C014900A0F13001092940F29C802B2800F0A580EA
S3150C0149102F2813D13F21587C1172A0F14103DBB230
S3150C014920192B0AD9A0F16103192B77D9A0F1300300
S3150C014930092B00F28980031DDBB253725148704773
S3150C014940A0F16101192946D9A0F13001092969D9CA
S3150C0149502B2800F08C802F28F0D13F2198E7A0F16D
S3150C014960610119293BD9A0F1300109295DD92B28FF
S3150C0149707FD02F28E2D13F2191E7A0F161011929BE
S3150C01498031D9A0F13001092952D92B2873D02F28FE
S3150C014990D4D13F218AE7A0F16101192927D9A0F1C8
S3150C0149A03001092947D92B2867D02F28C6D13F2199
S3150C0149B083E7A2F1300109291DD92B2A51D02F2ABF
S3150C0149C0BCD13F2128E7ACF14700C0B23FE7ACF1BF
S3150C0149D04701C9B255E7A0F14701C9B258E7A0F1A1
S3150C0149E04701C9B25BE7A0F14701C9B25EE7A0F185
S3150C0149F04701C9B261E70432D1B20DE7A0F1470113
S3150C014A00C9B271E70CF10400C0B220E7A0F147016D
S3150C014A10C9B280E70CF10401C9B232E7A0F1470330
S3150C014A20DBB28AE7011DC9B232E7011DC9B236E70D
S3150C014A30011DC9B23AE7011DC9B23EE7011DC9B252
S3150C014A4052E7011DC9B266E72B2808D02F287FF43F
S3150C014A5075AF3F2371E73E2146E73E215BE73E23D7
S3150C014A606BE73E21D8E63E20F1E63E2109E73E21E1
S3150C014A700EE73E2113E73E2118E73E211DE700BF55
S3150C014A8090FDFF1FD85900202DE9F0434E4BD0F86D
S3150C014A90032004888BB0A3FB0217FF0881788DF8DD
S3150C014AA01A10A3FB071807EB8701A2EB4102303260
S3150C014AB04FEAD8088DF814208DF8232000228DF8A2
S3150C014AC02420A3FB0825ED08A3FB052E4FEADE0ED9
S3150C014AD0A3FB0E2C4FEADC0CA3FB0C20C008A3FB9A
S3150C014AE00021C908A3FB0192D208A3FB0293DB08A0
S3150C014AF003EB8303A2EB430302EB8202A1EB42021B
S3150C014B0001EB8101A0EB410100EB8000ACEB400015
S3150C014B100CEB8C0CAEEB4C0C0EEB8E0EA5EB4E0E81
S3150C014B2005EB8505A8EB450508EB8808A7EB4807B7
S3150C014B300EF1300E0CF1300C303030313032303366
S3150C014B40303730358DF80D208DF80C308DF813700B
S3150C014B508DF812508DF811E08DF810C08DF80F00FC
S3150C014B608DF80E1003AB03CBADF81840174CCDF8EE
S3150C014B701B00CDF81F10002206AB84F8232007CBAF
S3150C014B80C4F81700C4F81B10C4F81F20FC212046DA
S3150C014B90FFF704FA0E4BC4F8FC001A681378580791
S3150C014BA0C3F3800102D50BB0BDE8F083094843F08D
S3150C014BB00403137000904FF480732246012001F018
S3150C014BC0CBF80BB0BDE8F083CDCCCCCC90FDFF1F60
S3150C014BD0D4590020F94201083549364891F822305A
S3150C014BE04A7E8270303BDAB2B1F817C0A0F800C029
S3150C014BF0092A5AD891F82120303A5FFA82FCBCF185
S3150C014C00090F52D891F820C002EB8202ACF1300C9C
S3150C014C1003EB42035FFA8CF2092A46D8642202FBA3
S3150C014C200C33CA7F303A5FFA82FCBCF1090F3CD8CF
S3150C014C304FF47A7C0CFB02338A7F303A5FFA82FCA2
S3150C014C40BCF1090F31D842F2107C0CFB02334A7FBE
S3150C014C50303A5FFA82FCBCF1090F26D810B4164C17
S3150C014C6004FB02330A7F303A5FFA82FCBCF1090F6E
S3150C014C7017D8124C04FB0232CB7EA3F1300C5FFA2F
S3150C014C808CF3092B0DD88B7E0D4CA3F1300104FB53
S3150C014C900C23CAB2092A04D80A4A02FB0133C0F80A
S3150C014CA0033004485DF8044B70470248704700BF57
S3150C014CB090FDFF1FE4590020A086010040420F0021
S3150C014CC08096980000E1F50510B52C4B42780178D9
S3150C014CD09A5C595C847890F807C01C5D86B08DF897
S3150C014CE00D20C2788DF80C109A5C01798DF80F2085
S3150C014CF04279595C9A5C8DF80E408DF810108479C6
S3150C014D00017A8DF81120427A1C5D13F80C009A5C1D
S3150C014D10595C8DF8124000238DF815208DF816304C
S3150C014D208DF813008DF8141003AB03CB144C1A88B1
S3150C014D309B78A4F82D20C4F82500C4F8291084F812
S3150C014D402F30FC212046FFF729F90E4BC4F8FC0045
S3150C014D501A6813785807C3F3800101D506B010BD44
S3150C014D60094843F00403137000904FF480732246F4
S3150C014D70012000F0F1FF06B010BD00BF9C9703089F
S3150C014D8090FDFF1FD4590020F9420108A44B93F85A
S3150C014D902520A2F14101C9B2192906D9A2F1610155
S3150C014DA0192900F2D680473AD1B293F826C09D4A0A
S3150C014DB0ACF14100C0B21928117011D9ACF16101E5
S3150C014DC0192940F2D080ACF13001092940F2EA8070
S3150C014DD0BCF12B0F00F01781BCF12F0F7ED13F20B8
S3150C014DE093F827C05070ACF14101C9B2192911D9F8
S3150C014DF0ACF16101192940F2BA80ACF130010929F3
S3150C014E0040F2D880BCF12B0F00F0FF80BCF12F0FC4
S3150C014E1064D13F2193F828009170A0F14101C9B2E8
S3150C014E2019295DD893F82900D170A0F14101C9B2B5
S3150C014E30192964D893F82A001171A0F14101C9B25C
S3150C014E4019296AD893F82B005171A0F14101C9B205
S3150C014E50192970D893F82C009171A0F14101C9B2AE
S3150C014E6019290FD9A0F16101192940F29780A0F1F6
S3150C014E703001092940F2B2802B2800F0BC802F2882
S3150C014E802CD13F2193F82D00D171A0F14101C9B26A
S3150C014E9019290FD9A0F16101192940F28780A0F1D6
S3150C014EA03001092940F29D802B2800F0A6802F287D
S3150C014EB014D13F2193F82E001172A0F14103DBB2FC
S3150C014EC0192B0AD9A0F16103192B77D9A0F130035B
S3150C014ED0092B00F28980031DDBB2537251487047CE
S3150C014EE0A0F16101192946D9A0F13001092969D925
S3150C014EF02B2800F08C802F28F0D13F2192E7A0F1CE
S3150C014F00610119293BD9A0F1300109295DD92B2859
S3150C014F107FD02F28E2D13F218CE7A0F1610119291D
S3150C014F2031D9A0F13001092952D92B2873D02F2858
S3150C014F30D4D13F2186E7A0F16101192927D9A0F126
S3150C014F403001092947D92B2867D02F28C6D13F21F3
S3150C014F5080E7A2F1300109291DD92B2A51D02F2A1C
S3150C014F60BCD13F2121E7ACF14700C0B238E7ACF127
S3150C014F704701C9B24EE7A0F14701C9B252E7A0F108
S3150C014F804701C9B256E7A0F14701C9B25AE7A0F1E8
S3150C014F904701C9B25EE70432D1B206E7A0F1470177
S3150C014FA0C9B26FE70CF10400C0B219E7A0F14701D1
S3150C014FB0C9B27FE70CF10401C9B22BE7A0F1470393
S3150C014FC0DBB28AE7011DC9B22CE7011DC9B231E773
S3150C014FD0011DC9B236E7011DC9B23BE7011DC9B2B4
S3150C014FE050E7011DC9B265E72B2808D02F287FF49D
S3150C014FF075AF3F2371E73E2144E73E215AE73E2335
S3150C0150006BE73E21D1E63E20EAE63E2102E73E2150
S3150C01501008E73E210EE73E2114E73E211AE700BFC1
S3150C01502090FDFF1FD85900202DE9F0434C4BD0F8C9
S3150C015030032004888BB0A3FB0217FF0881788DF837
S3150C0150401A10A3FB071807EB8701A2EB41023032BA
S3150C0150508DF814204FEAD8088DF8232000228DF8FC
S3150C0150602420A3FB0826F608A3FB0625ED08A3FBC3
S3150C015070052C4FEADC0CA3FB0C20C008A3FB00217A
S3150C015080C908A3FB0192D208A3FB0293DB0803EB2D
S3150C0150908303A2EB430302EB8202A1EB420201EB77
S3150C0150A08101A0EB410100EB8000ACEB40000CEB65
S3150C0150B08C0CA5EB4C0C05EB8505A6EB450506EB17
S3150C0150C08606A8EB460608EB8808A7EB48070CF101
S3150C0150D0300C3030303130323033303730363035C9
S3150C0150E08DF80C308DF813708DF812608DF8115007
S3150C0150F08DF810C08DF80F008DF80E108DF80D205F
S3150C01510003AB03CBADF81840CDF81B00CDF81F103F
S3150C0151100AAB13E90F00134C04F1340EAEE8070089
S3150C015120FC218EF800302046FEF738FF0E4BC4F8F2
S3150C015130FC001A6813785807C3F3800102D50BB02B
S3150C015140BDE8F083094843F00403137000904FF453
S3150C01515080732246012000F0FFFD0BB0BDE8F08301
S3150C015160CDCCCCCC90FDFF1FD4590020F9420108BF
S3150C0151703849394891F83F3091F836208270303BE6
S3150C015180DAB2B1F834C0A0F800C0092A60D891F897
S3150C0151903E20303A5FFA82FCBCF1090F58D891F8DF
S3150C0151A03DC002EB8202ACF1300C03EB42035FFA19
S3150C0151B08CF2092A4CD8642202FB0C3391F83C2060
S3150C0151C0303A5FFA82FCBCF1090F41D84FF47A7C74
S3150C0151D00CFB023391F83B20303A5FFA82FCBCF1AE
S3150C0151E0090F35D842F2107C0CFB023391F83A20A8
S3150C0151F0303A5FFA82FCBCF1090F29D810B4174C6E
S3150C01520004FB023391F83920303A5FFA82FCBCF187
S3150C015210090F19D8124C04FB023291F83830A3F15C
S3150C015220300C5FFA8CF3092B0ED891F837300D4CF4
S3150C015230A3F1300104FB0C23CAB2092A04D80A4A89
S3150C01524002FB0133C0F8033003485DF8044B704789
S3150C0152500148704790FDFF1FE4590020A08601000C
S3150C01526040420F008096980000E1F50530B52F4CB1
S3150C01527083B0A022FF2104F1600022F090FF4FF0D1
S3150C01528001134FF030322360FC2100234FF480755B
S3150C01529020462261C4F82D20C4F84A20C4E90152E3
S3150C0152A0C4E90D22E260C4F81320C4F81720C4F82F
S3150C0152B01B20C4F81F20A4F82320C4F82520C4F809
S3150C0152C029202263E263A4F84020C4F84220C4F8E2
S3150C0152D04620C4F84D20C4F85120C4F85520C4F812
S3150C0152E05920A4F85D2084F85F30FEF757FE104B69
S3150C0152F0C4F8FC001B681A785007C2F3800105D567
S3150C015300012003B0BDE8304007F0F4B842F00402C6
S3150C0153101A70084B009322462B46012000F01CFD07
S3150C015320012003B0BDE8304007F0E4B890FDFF1F43
S3150C015330D4590020F9420108FFF798BF014B1860B8
S3150C015340704700BFD4590020034A034603CA1860AC
S3150C01535059601846704700BF90FDFF1F38B50B4CBE
S3150C015360237803B138BD0A4D2A68137843F0080334
S3150C0153701370012007F0B8F82B68187800F00100BB
S3150C01538007F0DCF80123237038BD00BFD05900208B
S3150C015390D4590020034B1B681A786FF382021A70DA
S3150C0153A0704700BFEC59002038B50B4C23681A78AE
S3150C0153B06FF341021A7000B938BD084DFC2128461D
S3150C0153C0FEF7ECFDD5F8FC309842F5D0226813783F
S3150C0153D043F00103137038BDEC59002090FEFF1FFA
S3150C0153E010B50E4CFC2182B02046FEF7D7FD0C4BB6
S3150C0153F0C4F8FC001A681378590701D502B010BD20
S3150C0154000121084843F00403137000904FF4807394
S3150C0154102246084600F0A0FC02B010BD90FEFF1F0C
S3150C015420EC590020955301080B4B1A681378990710
S3150C015430C3F3400000D5704700B583B0074943F06C
S3150C015440020313700091064A4FF48073012100F098
S3150C01545083FC03B05DF804FBEC590020A953010849
S3150C01546090FEFF1F10B50E4C22681378990782B077
S3150C015470C3F3400007D513780A4813F0080F08BF89
S3150C015480002002B010BD084943F002031370054A0F
S3150C01549000914FF48073012100F05EFC2268EAE76B
S3150C0154A0EC59002090FEFF1FA953010810B5124CB0
S3150C0154B001464FF4807282B0204622F048FEFC2150
S3150C0154C02046FEF76BFD0D4BC4F8FC001A681378E9
S3150C0154D0590702D5012002B010BD0121084843F03D
S3150C0154E00403137000904FF480732246084600F0B3
S3150C0154F033FC012002B010BD90FEFF1FEC590020B9
S3150C0155009553010830B5174CF82283B0FF2104F1ED
S3150C015510080022F044FE144BFC214FF48075204602
S3150C015520C4E90035FEF73AFD104BC4F8FC001B68C4
S3150C0155301A78510705D5012003B0BDE8304006F0B5
S3150C015540BBBF01210A4842F004021A7000902B4697
S3150C0155502246084600F000FC012003B0BDE83040AD
S3150C01556006F0AABF90FEFF1F02000100EC590020B5
S3150C01557095530108034B1A68137843F0080313700B
S3150C015580704700BFEC590020034A034603CA186052
S3150C01559059601846704700BF90FEFF1F38B50A4C7C
S3150C0155A0207878B9094D2B6813B11878C0F3C0006F
S3150C0155B006F07CFF2B68187800F0010006F0B2FFAC
S3150C0155C00123237038BD00BFEB590020EC59002094
S3150C0155D0014B1860704700BFEC590020034B1B6848
S3150C0155E01A786FF382021A70704700BFF4590020C3
S3150C0155F038B50C4C236823B11A786FF341021A7033
S3150C01560000B938BD084DFC212846FEF7C7FCD5F874
S3150C015610FC309842F5D02268137843F001031370DD
S3150C01562038BD00BFF459002090FFFF1F10B50E4C7A
S3150C015630FC2182B02046FEF7B1FC0C4BC4F8FC00F1
S3150C0156401A681378590701D502B010BD084943F001
S3150C01565004031370012000914FF48073224602213A
S3150C01566000F07AFB02B010BD90FFFF1FF459002029
S3150C015670DD5501080B4B1A6813789907C3F34000E3
S3150C01568000D5704700B583B0074943F00203137088
S3150C0156900091064A4FF48073022100F05DFB03B0C2
