S04300000100010004000100020200006E92BEE064C9F52E00000000000000000701030094AC00000002010C000000000000000000000000000000001AE06A6DD44C3BE756
S3150C0100000100010004000100020200006E92BEE034
S3150C01001064C9F52E00000000000000000701030072
S3150C01002094AC00000002010C00000000000000006E
S3150C01003000000000000000001AE06A6DD44C3BE79A
S3150C01020000D0FF1F050401089D0401089D04010887
S3150C0102109D0401089D0401089D04010800000000CD
S3150C0102200000000000000000000000009D04010811
S3150C0102309D040108000000009D0401089D040108AD
S3150C0102409D0401089D0401089D0401089D040108F3
S3150C0102509D0401089D0401089D0401089D040108E3
S3150C0102609D040108000000000000000000000000D1
S3150C0102709D040108000000009D0401089D0401086D
S3150C0102809D0401089D0401089D0401089D040108B3
S3150C0102909D0401089D0401089D0401089D040108A3
S3150C0102A09D0401089D0401089D0401089D04010893
S3150C0102B09D0401089D0401089D0401089D04010883
S3150C0102C09D0401089D0401089D0401089D04010873
S3150C0102D09D0401089D0401089D0401089D04010863
S3150C0102E09D0401089D0401089D0401089D04010853
S3150C0102F09D0401089D0401089D0401089D04010843
S3150C0103009D0401089D0401089D0401089D04010832
S3150C0103109D0401089D0401089D0401089D04010822
S3150C0103209D0401089D0401089D0401089D04010812
S3150C0103309D0401089D0401089D0401089D04010802
S3150C0103409D0401089D0401089D0401089D040108F2
S3150C0103509D0401089D0401089D0401089D040108E2
S3150C0103609D0401089D0401089D0401089D040108D2
S3150C0103709D0401089D0401089D0401089D040108C2
S3150C0103809D0401089D0401089D0401089D040108B2
S3150C0103909D0401089D0401089D0401089D040108A2
S3150C0103A09D0401089D0401089D0401089D04010892
S3150C0103B09D0401089D0401089D0401089D04010882
S3150C0103C0000000000000000000000000000000001A
S3150C0103D000000000000000009D0401080000000060
S3150C0103E09D0401089D040108000000009D040108FC
S3150C0103F09D04010800000000000000000000000040
S3150C010400070103001D4885461D4880471D4C1E4D9E
S3150C010410AC4209DA21686268A368043BA2BFC858DA
S3150C010420D050FAE70C34F3E7184B194CA34208DA0F
S3150C01043019685A680020043AA4BF8850FBE70833B0
S3150C010440F4E71448804714488047000094AE010C29
S3150C01045000D0FF1F0000000094AE010C00D0FF1F5E
S3150C0104600000000000D0FF1F30000000000000203B
S3150C01047000000000000000200000000000D0FF1F5B
S3150C010480CD0401084C040108640401086404010844
S3150C0104907C040108510E0108450D0108FEE780B4E4
S3150C0104A085B000AF78600023FB6003E000BFFB68FA
S3150C0104B00133FB60FB687A689A42F7D800BF00BF2C
S3150C0104C01437BD465DF8047B7047000098B500AF44
S3150C0104D0084A4FF0005314460FCB84E80F00064B25
S3150C0104E0064A07CA83E8070000F00AF800F042F84A
S3150C0104F000BF98BDC4FF0020D4FF0020840000205B
S3150C01050080B483B000AF72B600BF174B174A9A601E
S3150C010510BFF34F8F00BF62B600BF134BD3F88830C1
S3150C010520114A43F47003C2F888300F4B5B690E4ACB
S3150C01053023F0080353610E4B03F580535B697B6013
S3150C0105407B6823F00F037B607B6843F003037B60BE
S3150C010550074B03F580531A467B68536100BF0C3772
S3150C010560BD465DF8047B704700ED00E00002010812
S3150C0105700010005880B500AF764B1B6803F00103E1
S3150C010580002B0CD1734B5B68724A43F00103536029
S3150C01059000BF704B1B6803F00103002BF9D06E4BA7
S3150C0105A01B6803F40073002B09D06B4B9B686A4ADA
S3150C0105B043F40073936041F64C50FFF770FF674BA1
S3150C0105C05B68664A43F40023536040F6C410FFF798
S3150C0105D066FF624B5B68614A23F4803323F00203A6
S3150C0105E053605F4B5B6803F03003002B26D05C4BEA
S3150C0105F05B685B4A23F4702323F03003536000F0ED
S3150C01060029F90346574AA2FB03231B0D013B1A0486
S3150C010610534B5B68524913434B60504B0022DA60D3
S3150C0106204E4B5B684D4A23F40033536000BF4B4B72
S3150C0106301B6803F46073B3F5607FF8D1474B5B68B5
S3150C010640464A43F00103536000BF444B1B6803F059
S3150C0106500103002BF9D0414B5B68404A43F0100370
S3150C01066053603E4B404A9A603C4B5B683B4A43F0B5
S3150C01067040035360394B5B68384A23F010035360CF
S3150C010680364B5B68354A43F48023536000BF334BCA
S3150C0106901B6803F00403002BF9D0304B5B682F4A1F
S3150C0106A023F00103536000BF2C4B1B6803F00103BD
S3150C0106B0002BF9D12D4BDB682C4A43F48033D360E4
S3150C0106C02A4B00225A61294B00221A61274B002220
S3150C0106D01A62264B00225A62244B03229A611F4B43
S3150C0106E05B681E4A23F0400353601C4B204A9A60F8
S3150C0106F000BF1A4B1B6803F02003002BF9D040F600
S3150C010700B830FFF7CCFE154B1A4A9A6000BF134B53
S3150C0107101B6803F02003002BF9D041F29410FFF76C
S3150C010720BEFE0E4B144A9A6000BF0C4B1B6803F0BD
S3150C0107302003002BF9D041F27070FFF7B0FE0F4B7E
S3150C0107400522DA60094B00225A6000F019F800BF45
S3150C01075080BD00BF004200500044005010470050BD
S3150C010760004700506BCA5F6B004F130100460050E7
S3150C010770004F0701004F0401004F03016041005077
S3150C01078080B584B000AF2F4BDB6803F48033002BAC
S3150C0107903ED02D4BDB6803F00103002B02D02B4B13
S3150C0107A0FB6002E000F056F8F860274B1B6803F07B
S3150C0107B00403002B20D0244B9B681B0E03F00F0364
S3150C0107C001337B60204B9B681B0A03F07F030133CB
S3150C0107D03B601D4B9B681B0C03F07F030133BB6015
S3150C0107E07B68BA6802FB03F3FA68B2FBF3F23B6867
S3150C0107F002FB03F3FB600DE0134B9B6803F07F03D5
S3150C0108000133BB60FA68BB68B2FBF3F3FB6001E032
S3150C0108100E4BFB600B4BDB68DBB20133FA68B2FBA8
S3150C010820F3F3FB60074B1B6903F001030133FA6811
S3150C010830B2FBF3F3FB60064AFB68136000BF10378B
S3150C010840BD4680BD004600501047005000366E0173
S3150C010850C0FF002080B400AF024B1846BD465DF8C0
S3150C010860047B7047001BB70080B483B000AF054B07
S3150C0108707B607B6850221A6000BF0C37BD465DF861
S3150C010880047B70475455000C80B485B000AF78607A
S3150C0108903960084BFB60FB687A681A60064BFB6093
S3150C0108A0FB683A681A6000BF1437BD465DF8047BD5
S3150C0108B0704700BFF055000CF455000C80B485B0A0
S3150C0108C000AF78600C4BFB60FB68AA221A600B4BDD
S3150C0108D0FB60FB6855221A60074BFB60FB68A02284
S3150C0108E01A607B68FB60FB68AA221A6000BF14378A
S3150C0108F0BD465DF8047B70475455000CA8AA000C44
S3150C01090080B485B000AF7860114BFB60FB68AA22FE
S3150C0109101A60104BFB60FB6855221A600C4BFB608E
S3150C010920FB6880221A600A4BFB60FB68AA221A60DC
S3150C010930084BFB60FB6855221A607B68FB60FB6801
S3150C01094030221A6000BF1437BD465DF8047B704730
S3150C0109505455000CA8AA000C80B483B000AF054B0B
S3150C0109607B607B68F5221A6000BF0C37BD465DF8CB
S3150C010970047B70475455000C80B584B000AF786089
S3150C0109803960FFF7E9FFFFF76FFF0023FB6010E00B
S3150C010990FB689B003A6813441868FB6801339B009B
S3150C0109A03A6813441B681946FFF76EFFFB6802335E
S3150C0109B0FB60FB683F2BEBD97868FFF77FFF00BF25
S3150C0109C0064B03F580531B6903F00103002BF7D18A
S3150C0109D000BF00BF1037BD4680BD00BF00100058D8
S3150C0109E080B582B000AF7860FFF7B6FF7868FFF785
S3150C0109F087FF00BF064B03F580531B6903F0010308
S3150C010A00002BF7D100BF00BF0837BD4680BD00BF24
S3150C010A100010005880B400AFBFF34F8F00BF064BD8
S3150C010A20DB6803F4E0620449044B1343CB60BFF368
S3150C010A304F8F00BF00BFFDE700ED00E00400FA0593
S3150C010A4080B400AF00BFBD465DF8047B7047000063
S3150C010A5080B500AF00F014F8064B074A5A60054BF7
S3150C010A6000229A60034B05221A60044B00221A607D
S3150C010A7000BF80BD10E000E07F32020020D0FF1FD6
S3150C010A8080B400AF064B00221A60054B00225A6057
S3150C010A90034B00229A6000BFBD465DF8047B70478C
S3150C010AA010E000E080B400AF074B1B6803F4803301
S3150C010AB0002B04D0054B1B680133044A136000BF9D
S3150C010AC0BD465DF8047B704710E000E020D0FF1FA7
S3150C010AD080B500AFFFF7E6FF014B1B68184680BDDA
S3150C010AE020D0FF1F90B587B000AF00233B610023D8
S3150C010AF0FB600123FB75144BBB60BB68DC6B3C21B3
S3150C010B00B86800F067F903469C4218D10F4B7B601D
S3150C010B107B68DC6B3C21786800F05CF903469C42EF
S3150C010B200BD17B68DA69BB68DB699A4202D0012377
S3150C010B30FB7504E00023FB7501E00023FB75FB7DCF
S3150C010B4018461C37BD4690BDA002000C0000010CD6
S3150C010B5080B400AF124B4FF040621A60104B4FF449
S3150C010B6080425A600E4B0F4A9A600D4B4FF48042ED
S3150C010B70DA600B4B0C4A1A61094B4FF480425A61ED
S3150C010B80074B0A4A9A61064B4FF48042DA61084BCD
S3150C010B9004221A6000BFBD465DF8047B704700BF96
S3150C010BA000D0FF1F0040000C0080000C00C0000CA0
S3150C010BB024D0FF1F80B483B000AF0123FB71134B0C
S3150C010BC000221A6000233B600CE0114A3B68DB00F3
S3150C010BD013445A680D4B1B6813440C4A13603B684B
S3150C010BE001333B600B4B1B683A689A42EDDB074BB2
S3150C010BF01A68094B1B689A4201D20023FB71FB79D7
S3150C010C0018460C37BD465DF8047B70472CD0FF1F88
S3150C010C1000D0FF1F24D0FF1F90AE010880B582B013
S3150C010C2000AF0123FB7000237B6009E0094A7B6856
S3150C010C3052F833301846FFF7D3FE7B6801337B60DD
S3150C010C40054B1B687A689A42F0DBFB781846083725
S3150C010C50BD4680BD00D0FF1F24D0FF1F80B586B0D6
S3150C010C6000AF0123FB7400237B61194B1B681B0A24
S3150C010C70FB60184B1B681B0ABB60BA68FB689A427F
S3150C010C8020D800237B6118E0134B1A687B691B0281
S3150C010C9013447B607B691B02104A13443B60FFF7CC
S3150C010CA017FF03460D330E4A13607B6839681846E5
S3150C010CB0FFF762FE7B6901337B61BB6801337A699D
S3150C010CC09A42E1D3FB7C18461837BD4680BD00BF5E
S3150C010CD02CD0FF1F90AE010800D0FF1F980E010803
S3150C010CE028D0FF1F80B485B000AF0123FB73124BD4
S3150C010CF01B687B600023BB600EE07A68BB681344FB
S3150C010D001A780E49BB680B441B789A4201D0002312
S3150C010D10FB73BB680133BB60094B1B68BA689A420B
S3150C010D2002D2FB7B002BE8D1FB7B18461437BD4660
S3150C010D305DF8047B704700BF00D0FF1F980E0108B9
S3150C010D4090AE010880B582B000AF0023FB71FFF7AE
S3150C010D507FFEFFF7C7FE034683F00103DBB2002BD0
S3150C010D602BD0FFF7B5FE034603F57A73184A1360C9
S3150C010D7000E000BFFFF7ACFE0246154B1B689A421A
S3150C010D80F7D3FFF747FEFFF7E3FEFFF713FF034623
S3150C010D90002B12D0FFF742FF0346002B0DD0FFF7B5
S3150C010DA05DFF0346002B08D0FFF79CFF0346002B83
S3150C010DB003D00123FB71FFF72DFEFB7983F00103B1
S3150C010DC0DBB2002BDFD1FB7918460837BD4680BD57
S3150C010DD028D0FF1F80B489B000AF7860396000233A
S3150C010DE0FB617B683B614FF0FF33BB6100237B6189
S3150C010DF020E03A697B6913441B78FB60BA69FB688E
S3150C010E005340BB610023FB610EE0BB6903F0010398
S3150C010E105B42BB60BB695A08B9680C4B0B4053402B
S3150C010E20BB61FB690133FB61FB69072BEDD97B695F
S3150C010E3001337B617A693B689A42DAD3BB69DB433E
S3150C010E4018462437BD465DF8047B70472083B8ED00
S3150C010E5070B50D4D0D4C641BA4100026A64209D18C
S3150C010E600B4D0C4CFFF7ECFD641BA4100026A6429F
S3150C010E7005D170BD55F8043B98470136EEE755F898
S3150C010E80043B98470136F2E700D0FF1F00D0FF1F45
S3150C010E9000D0FF1F00D0FF1F00D0FF1F0502000866
S3150C010EA09D0200089D0200089D0200089D02000893
S3150C010EB09D02000800000000000000000000000078
S3150C010EC0000000009D0200089D02000800000000C1
S3150C010ED09D0200089D0200089D0200089D02000863
S3150C010EE09D0200089D0200089D0200089D02000853
S3150C010EF09D0200089D0200089D02000800000000EA
S3150C010F0000000000000000009D0200080000000027
S3150C010F109D0200089D0200089D0200089D02000822
S3150C010F209D0200089D0200089D0200089D02000812
S3150C010F309D0200089D0200089D0200089D02000802
S3150C010F409D0200089D0200089D0200089D020008F2
S3150C010F509D0200089D0200089D0200089D020008E2
S3150C010F609D0200089D0200089D0200089D020008D2
S3150C010F709D0200089D0200089D0200089D020008C2
S3150C010F809D0200089D0200089D0200089D020008B2
S3150C010F909D0200089D0200089D0200089D020008A2
S3150C010FA09D0200089D0200089D0200089D02000892
S3150C010FB09D0200089D0200089D0200089D02000882
S3150C010FC09D0200089D0200089D0200089D02000872
S3150C010FD09D0200089D0200089D0200089D02000862
S3150C010FE09D0200089D0200089D0200089D02000852
S3150C010FF09D0200089D0200089D0200089D02000842
S3150C0110009D0200089D0200089D0200089D02000831
S3150C0110109D0200089D0200089D0200089D02000821
S3150C0110209D0200089D020008816F00089D6F000853
S3150C011030B96F0008D56F00089D0200089D020008D3
S3150C011040F16F00080D700008297000084570000842
S3150C0110509D0200089D02000800000000000000002F
S3150C011060000000000000000000000000000000006D
S3150C0110709D020008000000009D0200089D02000868
S3150C011080000000009D0200089D02000800000000FF
S3150C0110900000000000000000070103001D48854602
S3150C0110A01D4880471D4C1E4DAC4209DA2168626809
S3150C0110B0A368043BA2BFC858D050FAE70C34F3E737
S3150C0110C0184B194CA34208DA19685A680020043ADD
S3150C0110D0A4BF8850FBE70833F4E71448804714484B
S3150C0110E080470000CC9E000C00D0FF1FEC000000D6
S3150C0110F0CC9E000C00D0FF1F0000000030D1FF1F5A
S3150C011100A4170000000000200000000000000020D1
S3150C0111100000000000D0FF1FE50900084C02000882
S3150C01112064020008640200087C020008D97D0008EC
S3150C011130E93B0008FEE70000010001000400010084
S3150C011140020200006E92BEE064C9F52E000000009A
S3150C0111500000000007010300000000000000000071
S3150C011160000000000000000000000000000000006C
S3150C01117000000000891FB35680B400AF034B1B68F7
S3150C011180DBB21846BD465DF8047B7047004400503F
S3150C01119080B400AF034B01221A7000BFBD465DF847
S3150C0111A0047B70474CD1FF1F80B400AF034B012267
S3150C0111B01A7000BFBD465DF8047B70474CD1FF1F0A
S3150C0111C080B400AF034B01221A7000BFBD465DF817
S3150C0111D0047B70474CD1FF1F80B400AF034B012237
S3150C0111E01A7000BFBD465DF8047B70474CD1FF1FDA
S3150C0111F080B400AF024B1846BD465DF8047B7047C0
S3150C01120050D1FF1F80B588B002AFF860B9607A6023
S3150C0112103B600023FB750023BB751B4B00221A6038
S3150C011220FB681B781A46194B53F8223000933B681E
S3150C0112307A68B968F86807F079F80346FB7514E023
S3150C011240134B1B78002B01D00123BB750E4B1B686E
S3150C01125001330D4A13600C4B1B684CF2503293420E
S3150C01126003D90123BB750023FB75BB7D83F00103F9
S3150C011270DBB2002BE4D1064B00221A70FB7D18461B
S3150C0112801837BD4680BD00BF48D1FF1F00D0FF1FD8
S3150C0112904CD1FF1F80B584B000AF0C4A3B1D07CA69
S3150C0112A083E8070005F01EFC094B1B883B803B4677
S3150C0112B01946032006F09EFF3B1D1A4603210548DD
S3150C0112C007F010F800BF1037BD4680BD4C910008E1
S3150C0112D05891000850D1FF1F80B584B000AF03466A
S3150C0112E0FB800023FB81FB880D2B01D8FB88FB813E
S3150C0112F0012000F029F9FB8918461037BD4680BD3F
S3150C01130090B587B000AF0446084611461A462346E7
S3150C011310FB800346BB800B467B8013463B80002338
S3150C0113207B610023FB740C4B7B610823FB74FB88EC
S3150C0113303B81BB887B817B88BB813B88FB81FA7CAB
S3150C01134007F108031946786903F05EFE03F032FDD6
S3150C01135000BF1C37BD4690BD0100501080B586B04C
S3150C01136000AF00237B610023FB741C4B7B610723BD
S3150C011370FB741B4BDB691B0CDBB2BB71184BDB69BA
S3150C0113801B0ADBB27B71164BDB69DBB23B71154B6E
S3150C011390FB60FB68002B0ED0FB68DB691B0CDBB218
S3150C0113A07B72FB68DB691B0ADBB23B72FB68DB6990
S3150C0113B0DBB2FB7105E000237B7200233B72002339
S3150C0113C0FB71FA7C3B1D1946786903F01DFE03F08F
S3150C0113D0F1FC00BF1837BD4680BD00BF013041107E
S3150C0113E0A00200080000010C80B584B000AF0023F8
S3150C0113F0FB600023FB720B4BFB600823FB723B4625
S3150C01140008220949184607F057FCFA7A3B46194651
S3150C011410F86803F0F9FD03F0CDFC00BF1037BD46AB
S3150C01142080BD00BF01D06418AC02000880B588B03D
S3150C01143000AF0023FB610023FB76FFF79DFE78616D
S3150C0114407B69DBB2184605F068FA03463B74002348
S3150C011450BB81204BFB610223FB763B4600221A60C3
S3150C0114605A60C3F807203B7CC3F30003DBB23B7025
S3150C0114703B7CC3F34003DBB27B703B7CC3F3800341
S3150C011480DBB2BB703B7CC3F3C003DBB2FB703B7CB2
S3150C011490C3F30013DBB23B713B7CC3F34013DBB2EA
S3150C0114A07B713B7CC3F38013DBB2FB71FA7E39464D
S3150C0114B007F10C03184607F019FBFA7E07F10C032A
S3150C0114C01946F86903F0A0FD03F074FC00BF203740
S3150C0114D0BD4680BD0110421080B400AF00BFBD46B1
S3150C0114E05DF8047B7047000080B483B000AF0346FF
S3150C0114F0FB71044AFB79137000BF0C37BD465DF8CE
S3150C011500047B704730D1FF1F80B483B000AF034614
S3150C011510FB71044AFB79537000BF0C37BD465DF86D
S3150C011520047B704730D1FF1F80B483B000AF0346F4
S3150C011530FB71044AFB79D37000BF0C37BD465DF8CD
S3150C011540047B704730D1FF1F80B483B000AF0346D4
S3150C011550FB71044AFB79537100BF0C37BD465DF82C
S3150C011560047B704730D1FF1F80B483B000AF0346B4
S3150C011570FB71044AFB79937100BF0C37BD465DF8CC
S3150C011580047B704730D1FF1F80B483B000AF034694
S3150C011590FB71044AFB79137200BF0C37BD465DF82B
S3150C0115A0047B704730D1FF1F80B483B000AF034674
S3150C0115B0FB71044AFB79937200BF0C37BD465DF88B
S3150C0115C0047B704730D1FF1F80B483B000AF034654
S3150C0115D0FB71044AFB79D37200BF0C37BD465DF82B
S3150C0115E0047B704730D1FF1F80B483B000AF034634
S3150C0115F0FB71044AFB79137300BF0C37BD465DF8CA
S3150C011600047B704730D1FF1F80B483B000AF034613
S3150C011610FB71044AFB79537300BF0C37BD465DF869
S3150C011620047B704730D1FF1F80B483B000AF0346F3
S3150C011630FB71044AFB79937300BF0C37BD465DF809
S3150C011640047B704730D1FF1F80B483B000AF0346D3
S3150C011650FB71044AFB79D37300BF0C37BD465DF8A9
S3150C011660047B704730D1FF1F80B483B000AF786024
S3150C011670044A7B68136100BF0C37BD465DF8047BD9
S3150C011680704700BF30D1FF1F80B483B000AF034653
S3150C011690FB71044AFB79137500BF0C37BD465DF827
S3150C0116A0047B704730D1FF1F80B483B000AF034673
S3150C0116B0FB71044AFB79537500BF0C37BD465DF8C7
S3150C0116C0047B704730D1FF1F80B483B000AF034653
S3150C0116D0FB71044AFB79937500BF0C37BD465DF867
S3150C0116E0047B704730D1FF1F80B483B000AF034633
S3150C0116F0FB71044AFB79D37500BF0C37BD465DF807
S3150C011700047B704730D1FF1F80B400AF024B1846E3
S3150C011710BD465DF8047B704730D1FF1F80B500AF25
S3150C01172018220021024807F0D5FA00BF80BD00BF80
S3150C01173030D1FF1F80B58CB000AF0023FB620023B4
S3150C01174087F82B30314BFB62082387F82B300023AB
S3150C0117507B600023BB60FFF7D7FF78627B6A002BA7
S3150C0117604FD07B6A1B783B737B6A5B787B737B6A96
S3150C0117709B78BB737B6ADB78FB737B6A1B793B7447
S3150C0117807B6A5B797B747B6A9B79BB747B6ADB793D
S3150C011790FB747B6A1B7A3B757B6A5B7A7B757B6A0E
S3150C0117A09B7ABB757B6ADB7AFB757B6A1B7B3B760B
S3150C0117B07B6A5B7B7B767B6A9B7BBB767B6ADB7B03
S3150C0117C0FB767B6A1B693B627B6A1B7D3B777B6A7B
S3150C0117D05B7D7B777B6A9B7DBB777B6ADB7DFB774E
S3150C0117E097F82B2007F10C013B1D184606F0CFFF8D
S3150C0117F097F82B203B1D1946F86A03F005FC03F0FC
S3150C011800D9FA00BF3037BD4680BD00BF01200C148C
S3150C01181080B483B000AF0346FB7100BF0C37BD46E5
S3150C0118205DF8047B704780B400AF00BFBD465DF820
S3150C011830047B704780B400AF00BFBD465DF8047BE6
S3150C011840704780B400AF00BFBD465DF8047B70479E
S3150C01185080B485B000AF78600023FB6003E000BF65
S3150C011860FB680133FB60FB687A689A42F7D800BFC4
S3150C01187000BF1437BD465DF8047B704798B500AFC1
S3150C011880084A4FF0005314460FCB84E80F00064B61
S3150C011890064A07CA83E8070000F00AF800F042F886
S3150C0118A000BF98BDC4FF0020D4FF00208400002097
S3150C0118B080B483B000AF72B600BF174B174A9A605B
S3150C0118C0BFF34F8F00BF62B600BF134BD3F88830FE
S3150C0118D0114A43F47003C2F888300F4B5B690E4A08
S3150C0118E023F0080353610E4B03F580535B697B6050
S3150C0118F07B6823F00F037B607B6843F003037B60FB
S3150C011900074B03F580531A467B68536100BF0C37AE
S3150C011910BD465DF8047B704700ED00E00000000851
S3150C0119200010005880B500AF764B1B6803F001031D
S3150C011930002B0CD1734B5B68724A43F00103536065
S3150C01194000BF704B1B6803F00103002BF9D06E4BE3
S3150C0119501B6803F40073002B09D06B4B9B686A4A16
S3150C01196043F40073936041F64C50FFF771FF674BDC
S3150C0119705B68664A43F40023536040F6C410FFF7D4
S3150C01198067FF624B5B68614A23F4803323F00203E1
S3150C01199053605F4B5B6803F03003002B26D05C4B26
S3150C0119A05B685B4A23F4702323F03003536000F029
S3150C0119B029F90346574AA2FB03231B0D013B1A04C3
S3150C0119C0534B5B68524913434B60504B0022DA6010
S3150C0119D04E4B5B684D4A23F40033536000BF4B4BAF
S3150C0119E01B6803F46073B3F5607FF8D1474B5B68F2
S3150C0119F0464A43F00103536000BF444B1B6803F096
S3150C011A000103002BF9D0414B5B68404A43F01003AC
S3150C011A1053603E4B404A9A603C4B5B683B4A43F0F1
S3150C011A2040035360394B5B68384A23F0100353600B
S3150C011A30364B5B68354A43F48023536000BF334B06
S3150C011A401B6803F00403002BF9D0304B5B682F4A5B
S3150C011A5023F00103536000BF2C4B1B6803F00103F9
S3150C011A60002BF9D12D4BDB682C4A43F48033D36020
S3150C011A702A4B00225A61294B00221A61274B00225C
S3150C011A801A62264B00225A62244B03229A611F4B7F
S3150C011A905B681E4A23F0400353601C4B204A9A6034
S3150C011AA000BF1A4B1B6803F02003002BF9D040F63C
S3150C011AB0B830FFF7CDFE154B1A4A9A6000BF134B8F
S3150C011AC01B6803F02003002BF9D041F29410FFF7A9
S3150C011AD0BFFE0E4B144A9A6000BF0C4B1B6803F0F9
S3150C011AE02003002BF9D041F27070FFF7B1FE0F4BBA
S3150C011AF00522DA60094B00225A6000F019F800BF82
S3150C011B0080BD00BF004200500044005010470050F9
S3150C011B10004700506BCA5F6B004F13010046005023
S3150C011B20004F0701004F0401004F030160410050B3
S3150C011B3080B584B000AF2F4BDB6803F48033002BE8
S3150C011B403ED02D4BDB6803F00103002B02D02B4B4F
S3150C011B50FB6002E000F056F8F860274B1B6803F0B7
S3150C011B600403002B20D0244B9B681B0E03F00F03A0
S3150C011B7001337B60204B9B681B0A03F07F03013307
S3150C011B803B601D4B9B681B0C03F07F030133BB6051
S3150C011B907B68BA6802FB03F3FA68B2FBF3F23B68A3
S3150C011BA002FB03F3FB600DE0134B9B6803F07F0311
S3150C011BB00133BB60FA68BB68B2FBF3F3FB6001E06F
S3150C011BC00E4BFB600B4BDB68DBB20133FA68B2FBE5
S3150C011BD0F3F3FB60074B1B6903F001030133FA684E
S3150C011BE0B2FBF3F3FB60064AFB68136000BF1037C8
S3150C011BF0BD4680BD004600501047005000366E01B0
S3150C011C00C0FF002080B400AF024B1846BD465DF8FC
S3150C011C10047B7047001BB70080B582B002AF0B4B3B
S3150C011C201B7883F00103DBB2002B0BD0074B01228F
S3150C011C301A70074B00934FF48073064A0321002058
S3150C011C4000F048FA00BFBD4680BD00BF61D2FF1F40
S3150C011C50250E000860D1FF1F80B400AF034B1B7823
S3150C011C601846BD465DF8047B704700BF60D2FF1F66
S3150C011C7080B483B000AF0023FB80084B1B78002B8C
S3150C011C8004D0074B1B8903F00F03FB80FB88184616
S3150C011C900C37BD465DF8047B704700BF60D2FF1F51
S3150C011CA060D1FF1F80B400AF034B1B781846BD46AD
S3150C011CB05DF8047B704700BF68D2FF1F80B584B006
S3150C011CC000AF03463A60FB710B46BB80154B0022F5
S3150C011CD01A70144B00221A70FB79002B1DD0FC21B3
S3150C011CE0114804F08DFEF8600F4BD3F8FC30FA68FE
S3150C011CF09A420FD00D4B01221A700D4B1B68013302
S3150C011D000B4A13600A4B1B680A2B06D1094B01229D
S3150C011D101A7002E0074B01221A7000BF1037BD463C
S3150C011D2080BD00BF61D2FF1F60D1FF1F68D2FF1FAC
S3150C011D3064D2FF1F60D2FF1F80B582B002AF0B4B7E
S3150C011D401B7883F00103DBB2002B0BD0074B01226E
S3150C011D501A70074B00934FF48073064A0121002039
S3150C011D6000F0B8F900BFBD4680BD00BF6DD3FF1FA3
S3150C011D70290F00086CD2FF1F80B400AF034B1B78F0
S3150C011D801846BD465DF8047B704700BF6CD3FF1F38
S3150C011D9080B400AF034B5B881846BD465DF8047BE7
S3150C011DA0704700BF6CD2FF1F80B400AF034B1B788A
S3150C011DB01846BD465DF8047B704700BF74D3FF1F00
S3150C011DC080B584B000AF03463A60FB710B46BB800D
S3150C011DD0134B00221A70FB79002B1DD0FC211148E4
S3150C011DE004F00EFEF8600F4BD3F8FC30FA689A42F9
S3150C011DF00FD00D4B01221A700C4B1B6801330B4A89
S3150C011E0013600A4B1B680A2B06D1094B01221A7067
S3150C011E1002E0074B01221A7000BF1037BD4680BD88
S3150C011E206DD3FF1F6CD2FF1F74D3FF1F70D3FF1F1F
S3150C011E306CD3FF1F80B489B000AF78603960002382
S3150C011E40FB617B683B614FF0FF33BB6100237B6118
S3150C011E5020E03A697B6913441B78FB60BA69FB681D
S3150C011E605340BB610023FB610EE0BB6903F0010328
S3150C011E705B42BB60BB695A08B9680C4B0B405340BB
S3150C011E80BB61FB690133FB61FB69072BEDD97B69EF
S3150C011E9001337B617A693B689A42DAD3BB69DB43CE
S3150C011EA018462437BD465DF8047B70472083B8ED90
S3150C011EB080B588B000AFF860B9607A60FB68002B1A
S3150C011EC002D0BB68002B01D1002320E07B687F2B5D
S3150C011ED001D800231BE0FB68BB610023FB6112E008
S3150C011EE0FB695B00BA68134407F114020A491846E8
S3150C011EF006F018FF7969BA69FB691344CAB21A70FC
S3150C011F00FB690133FB61FB693F2BE9D901231846B8
S3150C011F102037BD4680BD00BF5C91000880B58AB0F4
S3150C011F2000AF0346B9607A60FB81012387F827303D
S3150C011F302B4B1B68002B0CBF0123002387F8263083
S3150C011F407B68B3F5807F8CBF0123002387F825308E
S3150C011F5097F82630002B03D197F82530002B03D0A8
S3150C011F60002387F8273035E0FB891D4A12689269F0
S3150C011F7002FB03F33B621A4B1868194B1B689B69EE
S3150C011F801A46396A00F06CFF0346FB77FB7F002B80
S3150C011F9003D0002387F827301CE03B6ABB61104B4A
S3150C011FA01868BB687A68B96901F0D6F90346FB75FE
S3150C011FB097F82730002B04D0FB7D002B01D1012390
S3150C011FC000E0002387F8273097F8273003F0010348
S3150C011FD087F8273097F8273018462837BD4680BD35
S3150C011FE0BCD4FF1F80B588B000AF0346B9607A60D8
S3150C011FF0FB810123FB771B4B1B68002B0CBF0123B9
S3150C0120000023BB777B68B3F5807F8CBF012300234C
S3150C0120107B77BB7F002B02D17B7F002B02D0002369
S3150C012020FB7719E0FB890F4A1268926902FB03F3ED
S3150C012030BB610C4B1868BB687A68B96900F058FE2D
S3150C0120400346FB75FB7D002B06D07A680021B86828
S3150C01205006F040FE0023FB77FB7F18462037BD4672
S3150C01206080BD00BFBCD4FF1F80B584B000AF7860C3
S3150C0120700023FB737B681B78002B02D0012B0CD041
S3150C01208017E07B6858887B6859687B689B681A4699
S3150C012090FFF7A8FF0346FB730BE07B6858887B6848
S3150C0120A059687B689B681A46FFF738FF0346FB7332
S3150C0120B000BF7B68DB68002B07D07B68DB687A681E
S3150C0120C051887A685268F87B984700BF1037BD462D
S3150C0120D080BD000080B487B000AFBA607B60034658
S3150C0120E0FB730B46BB8172B600BF1F4B1B88FB8271
S3150C0120F0FB8A0133FB82FB8A132B01D90023FB825A
S3150C0121001A4B1B88FA8A9A4203D162B600BF002386
S3150C01211024E0154B1B881B01154A13443B613B6993
S3150C012120FA7B1A703B69BA895A803B69BA685A605C
S3150C0121303B697A689A603B693A6ADA600A4B1B8892
S3150C01214001339AB2084B1A80074B1B88132B02D901
S3150C012150054B00221A8062B600BF012318461C37B4
S3150C012160BD465DF8047B7047B8D4FF1FBAD4FF1F78
S3150C01217078D3FF1F80B582B000AF124B1A88124B71
S3150C0121801B889A4219D072B600BF0E4B1B881B01D5
S3150C0121900E4A13447B600B4B1B8801339AB2094BD5
S3150C0121A01A80084B1B88132B02D9064B00221A8066
S3150C0121B062B600BF7868FFF757FF00BF0837BD4608
S3150C0121C080BD00BFBAD4FF1FB8D4FF1F78D3FF1F41
S3150C0121D080B582B000AF0123FB710C4B00221A8033
S3150C0121E00B4B00221A8000F0B9FB0346002B05D1DC
S3150C0121F000F0E4FB0346074A136001E00023FB7180
S3150C012200FB7918460837BD4680BD00BFB8D4FF1F01
S3150C012210BAD4FF1FBCD4FF1F80B586B000AFF860DF
S3150C012220B9607A603B60FEF7E3FF78613B6AB3F510
S3150C012230827F01D9032318E07A683B6A13440D4A5D
S3150C012240B9687869FEF7DEFF034683F00103DBB25A
S3150C012250002B01D0022308E07B68064A13443A6A34
S3150C0122601946386806F028FD002318461837BD466E
S3150C01227080BD00BFC0D4FF1F80B483B000AF7860AF
S3150C01228000BF0C37BD465DF8047B704780B483B044
S3150C01229000AF786000BF0C37BD465DF8047B704714
S3150C0122A080B483B000AF78237B6000BF7B685A1E75
S3150C0122B07A60002BFAD100BF00BF0C37BD465DF822
S3150C0122C0047B704780B485B000AF78600023FB7344
S3150C0122D07B685B68002B12D17B680C4A5A627B685F
S3150C0122E00B4A9A627B680B4ADA627B6800221A6394
S3150C0122F07B68094A9A637B68084ADA6300BFFB7BF1
S3150C01230018461437BD465DF8047B704781130008E7
S3150C012310E1130008F513000809140008C027090089
S3150C0123200FB480B400AF00BFBD465DF8047B04B0AA
S3150C0123307047000080B584B000AF7860786800F013
S3150C01234021F80346002B10D007F1080319467868CB
S3150C01235000F064F80346002B07D007F10803194671
S3150C012360786800F0B3F8034606E07B681B681946EB
S3150C0123700348FFF7D5FF002318461037BD4680BD2D
S3150C0123806491000880B586B000AF78607B684433F1
S3150C0123907B6100233B610023BB600023FB607B69EF
S3150C0123A000221A7007F1080208233969786800F0CF
S3150C0123B033FA0346002B04D01648FFF7B1FF00236E
S3150C0123C023E03B7A532B08D17B7A462B05D1BB7A7A
S3150C0123D0442B02D1FB7A502B01D0002315E03A7B1A
S3150C0123E07B699A707A7B7B695A707B695B78012B66
S3150C0123F00AD97B695B7819467B699B781A4606482C
S3150C012400FFF78EFF002300E0012318461837BD465F
S3150C01241080BD00BFC0910008E091000880B586B070
S3150C01242000AF7860396008237B610023FB600023D1
S3150C0124303B6107F10C0208237969786800F0ECF925
S3150C0124400346002B04D01E48FFF76AFF002332E037
S3150C0124503A7B3B681A707A7B3B685A70BA7B3B684D
S3150C0124609A70FA7B3B68DA703B7C1A467B7C1B02C2
S3150C0124701A43BB7C1B0413431A463B685A603B68E0
S3150C0124809B78012B0AD93B689B7819463B685B788C
S3150C0124901A460C48FFF744FF00230CE03B68DB7837
S3150C0124A0082B07D83B68DB7819460748FFF738FF36
S3150C0124B0002300E0012318461837BD4680BD00BF36
S3150C0124C01892000850920008A492000880B592B0A8
S3150C0124D000AF786039607B6844333B643B685B686A
S3150C0124E0FB630023FB6007F1100320220021184631
S3150C0124F006F0F0FB07F10C022423F96B786800F067
S3150C0125008BF90346002B04D08948FFF709FF0023FA
S3150C0125107DE1002387F8473004E097F84730013313
S3150C01252087F8473097F84730082BF6D97A7B3B6CFE
S3150C012530DA713B7B03F00303012B02D0032B04D08E
S3150C01254007E03B6C01229A7108E03B6C00229A7100
S3150C01255004E07848FFF7E4FE002358E13B7B9B102F
S3150C01256003F00103002B02D0012B04D008E03B6CD5
S3150C01257001229A8004E03B6C4FF480729A8000BF72
S3150C0125803B7BDB1003F00103002B02D0012B04D0A3
S3150C01259018E03B6C01221A7214E03B6C00221A7291
S3150C0125A03B7B1B1103F00103002B02D0012B04D042
S3150C0125B007E03B6C50225A7203E03B6C06225A72BE
S3150C0125C000BF00BFBB7B5B1003F00303022B14D0CF
S3150C0125D0022B19DC002B02D0012B07D014E03B6C2B
S3150C0125E001229A723B6C0022DA7218E03B6C0122D2
S3150C0125F09A723B6C0122DA7211E03B6C00229A72E0
S3150C0126003B6C0122DA720AE03B6C00229A723B6C3B
S3150C0126100022DA724848FFF783FE0023F7E0FB7CC1
S3150C0126201A06BB7C1B041A437B7C1B0213433A7CA4
S3150C0126301343BB63FB7CDB09DBB2002B02D0012B02
S3150C01264006D01DE0BB6BDB085A1C3B6CDA6017E04D
S3150C012650BB6B23F00043BB63BB6B232B07D93B6CD2
S3150C0126600022DA603548FFF75BFE0023CFE0BB6B37
S3150C012670033B012202FA03F31A463B6CDA6000BFF4
S3150C012680002387F84730002387F8463036E097F861
S3150C01269047300E335B0048333B4413F83C3C002B6C
S3150C0126A027D097F847300E335B0048333B4413F879
S3150C0126B03C3C1A460123934097F8462019463B6C3D
S3150C0126C0023243F8321097F847300E335B005A1C2E
S3150C0126D097F8463048323A4412F83C1C3A6C0233AD
S3150C0126E0DB0013440A461A7197F84630013387F812
S3150C0126F0463097F84730013387F8473097F847301B
S3150C012700032BC4D9002387F84730002387F84630BA
S3150C01271075E097F847203B6C023253F83230002BA8
S3150C01272068D097F84730013387F846305EE000BF32
S3150C012730EC920008249300085C930008809300082F
S3150C01274097F846203B6C023253F83230002B48D0B6
S3150C01275097F847203B6C023253F8322097F8461013
S3150C0127603B6C023153F831309A423AD997F84720EB
S3150C0127703B6C023253F832307B6397F847303A6C34
S3150C0127800233DB0013441B7987F8333097F8461074
S3150C01279097F847203B6C023153F831103B6C0232EF
S3150C0127A043F8321097F8463097F847103A6C0233D3
S3150C0127B0DB00134418793A6C8B1CDB00134402467C
S3150C0127C01A7197F846203B6C0232796B43F832103A
S3150C0127D097F846303A6C0233DB00134497F83320F2
S3150C0127E01A7197F84630013387F8463097F8463018
S3150C0127F0032BA5D997F84730013387F8473097F85B
S3150C0128004730032B85D93B6C01221A7001231846DC
S3150C0128104837BD4680BD00BF90B589B002AFF860A0
S3150C012820B9607A603B605A233B74BB681B0CDBB204
S3150C0128307B74BB681B0ADBB2BB74BB68DBB2FB7473
S3150C012840FF233B75FB685C6AFB6803F1200007F10B
S3150C01285010013B6800937B680522A0470346184686
S3150C0128601C37BD4690BD80B487B000AFF860B96027
S3150C0128707A6000237B61FB685A6DBB68B3FBF2F18E
S3150C01288001FB02F29B1A002B01D000232CE003233F
S3150C0128903B61FA683B690A33DB0013445B68002B26
S3150C0128A019D0FA683B690A33DB0013445B687A6812
S3150C0128B09A4210D3FA683B690A33DB0013445A680F
S3150C0128C0BB68B3FBF2F101FB02F29B1A002B02D19E
S3150C0128D03B697B6107E03B69002B03D03B69013BFC
S3150C0128E03B61D6E700BF7B6918461C37BD465DF8D0
S3150C0128F0047B704780B584B000AF78600023FB730E
S3150C012900786800F065F80346FB73FB7B002B04D15A
S3150C012910786800F0DFF90346FB73FB7B002B0AD1C9
S3150C0129207B68012283F834207B681B6819460948A9
S3150C012930FFF7F6FC09E07B68002283F834207B68FC
S3150C0129401B6819460448FFF7EBFCFB7B184610374E
S3150C012950BD4680BD709500089895000880B584B079
S3150C01296000AF0023FB710023FB730023BB601BE04C
S3150C012970114ABB68742101FB03F313440433BA688F
S3150C0129801A60BB68742202FB03F30B4A1344184604
S3150C012990FFF7B0FF0346FB71FB79002B01D0FB79E6
S3150C0129A0FB73BB680133BB60BB68002BE0D0FB7BC0
S3150C0129B018461037BD4680BD10D0FF1F80B400AF3E
S3150C0129C0024B1846BD465DF8047B704710D0FF1FBD
S3150C0129D080B586B000AF78600023FB757868FFF789
S3150C0129E071FC0346FB75FB7D002B01D0FB7D60E181
S3150C0129F07B681B69002B0CD07B689B8A002B08D04B
S3150C012A007B689B69002B04D07B681B7F002B40F0F5
S3150C012A10BF80786800F018FD0346FB75FB7D002B23
S3150C012A2001D0FB7D45E17868FFF784FC0346002B5A
S3150C012A3047D07B6800229A607B681A6D7B681A61A5
S3150C012A407B68B3F84830012B03D17B6802229A824A
S3150C012A5002E07B6801229A827B685A6D7B689A61D7
S3150C012A607B6893F858207B681A7701233B6124E035
S3150C012A707A683B690A33DB0013445B68002B19D077
S3150C012A807B689A6979683B690A33DB000B445B689E
S3150C012A909A420FD97A683B690A33DB0013445A68A8
S3150C012AA07B689A617A683B690A33DB0013441A7AAC
S3150C012AB07B681A773B6901333B613B69032BD7D999
S3150C012AC066E000233B6160E07C493A6913465B0092
S3150C012AD01344DB000B4404331A787B681B7B9A4244
S3150C012AE050D176493A6913465B001344DB000B441B
S3150C012AF005331A787B685B7B9A4243D16F493A69F5
S3150C012B0013465B001344DB000B4406331A787B68CF
S3150C012B109B7B9A4236D169493A6913465B00134449
S3150C012B20DB000B441A687B689A6064493A69134660
S3150C012B305B001344DB000B4408331A687B681A618B
S3150C012B405E493A6913465B001344DB000B440C33B4
S3150C012B501A887B689A8259493A6913465B00134471
S3150C012B60DB000B4410331A687B689A6153493A6946
S3150C012B7013465B001344DB000B4414331A787B6851
S3150C012B801A7705E03B6901333B613B69182B9BD9ED
S3150C012B907B681B69002B0BD07B689B8A002B07D0AB
S3150C012BA07B689B69002B03D07B681B7F002B04D1B0
S3150C012BB04348FFF7B5FB01237BE00023FB600023B1
S3150C012BC03B6111E03F4A3B69DB0013441A797B6890
S3150C012BD01B7B9A4205D13B4A3B6952F83330FB6069
S3150C012BE005E03B6901333B613B69102BEAD9FB6874
S3150C012BF0002B0CD07B689B68002B08D07B689A68ED
S3150C012C007B681B69F9683048FFF78AFB10E0FB68A3
S3150C012C10002B07D07B681B691A46F9682B48FFF70E
S3150C012C207FFB05E07B681B6919462948FFF778FB92
S3150C012C30786800F0BFFB0346FB75FB7D002B01D0CA
S3150C012C40FB7D36E07B689B8A03F00403002B07D0DF
S3150C012C5000220121786800F043FD0346FB7512E062
S3150C012C607B681B7BC22B0ED17B685B7B202B0AD12D
S3150C012C707B689B7B162B06D100220021786800F01D
S3150C012C802FFD0346FB75FB7D002B01D0FB7D10E070
S3150C012C907B681B69B3F1807F06D90121786800F046
S3150C012CA055FC0346FB7503E07B68002283F835204F
S3150C012CB0FB7D18461837BD4680BD00BFD898000865
S3150C012CC0C495000850980008FC9500082896000841
S3150C012CD05496000880B485B000AF78600023FB736E
S3150C012CE0FB7B18461437BD465DF8047B7047000024
S3150C012CF090B58BB002AFF860B9607A603B60002387
S3150C012D00FB77FB682033BB61BA687B681A44FB68A6
S3150C012D101B699A4204D92048FFF702FB052337E0C9
S3150C012D20BB699B68002B03D0BB699B68B869984744
S3150C012D30F86800F069FC0346FB77FB7F002B1ED17C
S3150C012D4003233B7407F1100301331A46B968F8687B
S3150C012D5000F098FCFB6893F83530002B01D0052365
S3150C012D6000E00423FB75BB695C68FA7D07F1100171
S3150C012D707B6800933B68B869A0470346FB77BB6940
S3150C012D80DB68002B03D0BB69DB68B8699847FB7F0E
S3150C012D9018462437BD4690BD7C96000890B589B07F
S3150C012DA002AF78600023FB757B6820333B613B697E
S3150C012DB09B68002B03D03B699B68386998470121B6
S3150C012DC0786800F071FB0346FB75FB7D002B33D154
S3150C012DD0C7233B737B689B8A03F00803002B12D035
S3150C012DE094237B738023BB739A23FB733B695C68C7
S3150C012DF007F10C0100230093002304223869A04734
S3150C012E000346FB750BE03B695C6807F10C0100237B
S3150C012E100093002301223869A0470346FB75FB7D0D
S3150C012E20002B03D00D48FFF77BFA06E0786800F01B
S3150C012E30EBFB0346FB7500E000BF0021786800F050
S3150C012E4033FB3B69DB68002B03D03B69DB683869D4
S3150C012E509847FB7D18461C37BD4690BDA4960008C5
S3150C012E6090B58DB002AFF860B9607A60002387F82F
S3150C012E702730FB682033FB61BA687B681A44FB6810
S3150C012E801B699A4204D96C48FFF74AFA0523CEE02E
S3150C012E90BB68002B09D1FB681B697A689A4204D17D
S3150C012EA0F868FFF77BFF0346C1E0FB699B68002BC3
S3150C012EB000F0A380FB699B68F86998479DE0FB6865
S3150C012EC093F84430002B15D07A68B968F868FFF787
S3150C012ED0CAFCB861FA68BB690A33DB0013441B7A76
S3150C012EE087F82630FA68BB690A33DB0013445B6842
S3150C012EF03B6206E0FB681B7F87F82630FB689B6903
S3150C012F003B620121F86800F0CFFA034687F82730B7
S3150C012F1097F82730002B75D197F826303B7407F1BB
S3150C012F20100301331A46B968F86800F0ABFBFB686D
S3150C012F3093F83530002B01D0052300E00423FB75F3
S3150C012F40FB695C68FA7D07F11001002300930023ED
S3150C012F50F869A047034687F8273097F82730002BE6
S3150C012F6003D03648FFF7DCF953E0F86800F04CFB68
S3150C012F70034687F8273097F82730002B44D1BB68D6
S3150C012F803A6AB3FBF2F2396A01FB02F29B1A002B85
S3150C012F9027D0BB683A6AB3FBF2F2396A01FB02F23B
S3150C012FA09B1A3A6AD31A7A689A422FD9BB683A6A3B
S3150C012FB0B3FBF2F2396A01FB02F29A1A3B6AD31A93
S3150C012FC07A6813447B60BB683A6AB3FBF2F2396ADE
S3150C012FD001FB02F29B1A3A6AD31ABA681344BB6014
S3150C012FE00BE07A683B6A9A4212D97A683B6AD31A21
S3150C012FF07B60BA683B6A1344BB607B68002B7FF429
S3150C0130005EAF06E000BF04E000BF02E000BF00E0D7
S3150C01301000BF0021F86800F047FAFB69DB68002B5A
S3150C01302003D0FB69DB68F869984797F8273018468F
S3150C0130302C37BD4690BD00BF7C960008D49600087F
S3150C01304090B58BB002AFF860B9607A607B800023D3
S3150C013050FB77FB6820337B61BA687B681A44FB6893
S3150C0130601B699A4204D94E48FFF75AF9052392E097
S3150C0130707B699B68002B7AD07B699B68786998473A
S3150C01308075E00121F86800F00FFA0346FB77FB7F28
S3150C013090002B70D1434B02221A70434AB968F86867
S3150C0130A000F0F0FAFB6893F83530002B01D00523BC
S3150C0130B000E00423FB747A88BB68B3FBF2F101FBD5
S3150C0130C002F29B1A002B19D079887A88BB68B3FB5C
S3150C0130D0F2F000FB02F29B1ACB1A7A689A420AD9D1
S3150C0130E079887A88BB68B3FBF2F000FB02F29B1A73
S3150C0130F0CB1ABB610BE07B68BB6108E07B887A6805
S3150C0131009A4202D97B88BB6101E07B68BB617A6814
S3150C013110BB69D31A7B60BA68BB691344BB60FB7C81
S3150C013120204A1344BA69396B184605F0C5FD7B690B
S3150C0131305C68FA7CBB691A44002300930023194985
S3150C0131407869A0470346FB77FB7F002B03D0174812
S3150C013150FFF7E6F812E0F86800F056FA0346FB773B
S3150C013160FB7F002B09D13A6BBB6913443B637B682C
S3150C013170002B86D102E000BF00E000BF0021F868F9
S3150C01318000F092F97B69DB68002B03D07B69DB6865
S3150C01319078699847FB7F18462437BD4690BD00BF1A
S3150C0131A07C960008C4D5FF1FC5D5FF1F00970008E4
S3150C0131B090B58BB002AFF860B9607A603B600023C2
S3150C0131C0FB77FB682033BB6101237B77BA687B688D
S3150C0131D01A44FB681B699A4204D95D48FFF7A0F8AB
S3150C0131E00523B1E0BB699B68002B03D0BB699B68C7
S3150C0131F0B8699847BB6803F00103002B13D0B96873
S3150C0132004B1CBB603B685A1C3A600093012301229C
S3150C013210F868FFF715FF0346FB77FB7F002B7CD184
S3150C0132207B68013B7B600121F86800F03DF90346A0
S3150C013230FB77FB7F002B72D1AD233B7453E07B7F75
S3150C013240002B22D007F1100301331A46B968F8682E
S3150C01325000F018FAFB6893F83530002B01D00523E2
S3150C01326000E00423BB77BB7F3A68127820333B44DA
S3150C01327003F8102CBB7F01333A68527820333B4458
S3150C01328003F8102C00237B7707E00123BB773B68FF
S3150C0132901B787B743B685B78BB74BB695C68BB7FD2
S3150C0132A002331A4607F11001002300930023B86973
S3150C0132B0A0470346FB77FB7F002B03D02548FFF77E
S3150C0132C02FF831E0F86800F09FF90346FB77FB7F96
S3150C0132D0002B26D17B68023B7B60BB680233BB604B
S3150C0132E03B6802333B607B68012BA8D80021F86848
S3150C0132F000F0DAF80346FB77FB7F002B13D17B68D2
S3150C013300012B10D13B68009301230122B968F8689F
S3150C013310FFF796FE0346FB7706E000BF04E000BF0D
S3150C01332002E000BF00E000BFFB7F002B03D00021B1
S3150C013330F86800F0B9F8BB69DB68002B03D0BB69F0
S3150C013340DB68B8699847FB7F18462437BD4690BDA4
S3150C0133507C9600080097000880B588B002AFF8602B
S3150C013360B9607A603B600023FB75FB689B8A03F0AE
S3150C0133700103002B0BD03B6800934FF480737A68E2
S3150C013380B968F868FFF75CFE0346FB750DE0FB6850
S3150C0133909B8A03F00403002B07D03B687A68B96853
S3150C0133A0F868FFF705FF0346FB75FB7D18461837D2
S3150C0133B0BD4680BD90B589B002AF78600023FB7520
S3150C0133C07B6820333B6166233B733B695C6807F181
S3150C0133D00C0100230093002301223869A047034600
S3150C0133E0FB75FB7D002B17D1786800F00DF90346B0
S3150C0133F0FB7599237B733B695C6807F10C03591CBC
S3150C01340000230093002301223869A0470346FB756C
S3150C013410FB7D002B0AD104E00A48FEF781FFFB7DF8
S3150C0134200BE0786800F0F0F80346FB75FB7D002B8A
S3150C01343002D00448FEF774FFFB7D18461C37BD46C7
S3150C01344090BD00BF2C97000890B589B002AF78608B
S3150C0134500023FB757B6820333B619F233B733B69E0
S3150C0134605C6807F1080307F10C01032200920122A3
S3150C0134703869A0470346FB75FB7D002B09D13A7AC7
S3150C0134807B681A737A7A7B685A73BA7A7B689A73F1
S3150C01349002E00448FEF744FFFB7D18461C37BD4687
S3150C0134A090BD00BF5097000890B587B002AF786009
S3150C0134B00B46FB700023FB73FB78002B02D0062313
S3150C0134C0BB7301E00423BB737B685C6A7B6803F105
S3150C0134D0200007F10E010023009300230122A047CF
S3150C0134E00346FB73FB7B002B07D107F10D03194632
S3150C0134F0786800F071F80346FB73FB7B002B1CD13B
S3150C013500FB78002B09D07B7B03F00203002B04D143
S3150C0135100C48FEF705FF022310E0FB7883F001034C
S3150C013520DBB2002B09D07B7B03F00203002B04D00A
S3150C0135300548FEF7F5FE022300E0FB7B184614371F
S3150C013540BD4690BD7C970008A097000890B587B042
S3150C01355002AF78600B46FB700023FB730121786880
S3150C013560FFF7A2FF0346FB73FB7B002B01D0FB7B12
S3150C01357028E0FB78002B02D0B723BB7301E0E923CB
S3150C013580BB737B685C6A7B6803F1200007F10E0153
S3150C0135900023009300230122A0470346FB73FB7B08
S3150C0135A0002B04D1FA787B6883F8352009E0FB7887
S3150C0135B0002B01D0054B00E0054B19460548FEF7DB
S3150C0135C0AFFEFB7B18461437BD4690BDC497000869
S3150C0135D0CC970008D497000890B587B002AF7860F5
S3150C0135E039600523FB737B685C6A7B6803F12000F9
S3150C0135F007F10F01012300933B680122A047034603
S3150C01360018461437BD4690BD80B586B000AF7860BC
S3150C0136100023FB757B68DB6B3B6107F10B031946DA
S3150C0136207868FFF7D9FF0346FB75FB7D002B04D1A8
S3150C013630FB7A03F00103002B11D07B689B6BFB60BB
S3150C0136403B69002B02D10423FB7509E0FB68002BB7
S3150C01365001D0FB6898473B69013B3B61DDE700BF45
S3150C013660FB7D002B04D1FB7A03F00103002B02D066
S3150C0136700348FEF755FEFB7D18461837BD4680BD3F
S3150C0136800098000880B487B000AFF860B9607A6022
S3150C013690FB6893F83530002B01D0042300E003239B
S3150C0136A0BB750023FB750FE0BA7DFB7D0133D31A85
S3150C0136B0DB00BA6822FA03F1FB7D7A681344CAB2BD
S3150C0136C01A70FB7D0133FB75FA7DBB7D9A42EBD3F8
S3150C0136D000BF00BF1C37BD465DF8047B7047000078
S3150C0136E090B589B002AF78600B46FB701346BB7080
S3150C0136F00023FB757B6820333B61FB78002B0ED0D6
S3150C01370050233B733B695C6807F10C010023009362
S3150C013710002301223869A0470346FB7505E0012108
S3150C0137207868FFF7C1FE0346FB75FB7D002B0FD1B5
S3150C01373001233B73BB787B733B695C6807F10C0116
S3150C01374000230093002302223869A0470346FB7528
S3150C013750FB7D002B02D00448FEF7E2FDFB7D1846EB
S3150C0137601C37BD4690BD00BF2898000880B483B0B5
S3150C01377000AF054B7B607B6850221A6000BF0C378B
S3150C013780BD465DF8047B70475455000C80B485B07A
S3150C01379000AF78603960084BFB60FB687A681A6089
S3150C0137A0064BFB60FB683A681A6000BF1437BD46CE
S3150C0137B05DF8047B704700BFF055000CF455000C06
S3150C0137C080B485B000AF78600C4BFB60FB68AA2215
S3150C0137D01A600B4BFB60FB6855221A60074BFB60AA
S3150C0137E0FB68A0221A607B68FB60FB68AA221A6040
S3150C0137F000BF1437BD465DF8047B70475455000C69
S3150C013800A8AA000C80B485B000AF7860114BFB60A0
S3150C013810FB68AA221A60104BFB60FB6855221A60E2
S3150C0138200C4BFB60FB6880221A600A4BFB60FB6841
S3150C013830AA221A60084BFB60FB6855221A607B684A
S3150C013840FB60FB6830221A6000BF1437BD465DF879
S3150C013850047B70475455000CA8AA000C80B483B0A5
S3150C01386000AF054B7B607B68F5221A6000BF0C37F5
S3150C013870BD465DF8047B70475455000C80B400AF0F
S3150C013880044B03F580531B691846BD465DF8047B52
S3150C013890704700BF0010005880B584B000AF786047
S3150C0138A03960FFF7DBFFFFF761FF0023FB6010E0D8
S3150C0138B0FB689B003A6813441868FB6801339B004C
S3150C0138C03A6813441B681946FFF760FFFB6802331D
S3150C0138D0FB60FB683F2BEBD97868FFF771FF00BFE4
S3150C0138E0064B03F580531B6903F00103002BF7D13B
S3150C0138F000BF00BF1037BD4680BD00BF0010005889
S3150C01390080B582B000AF7860FFF7A8FF7868FFF743
S3150C01391079FF00BF064B03F580531B6903F00103C6
S3150C013920002BF7D100BF00BF0837BD4680BD00BFD5
S3150C0139300010005880B485B000AFF8600B467A6071
S3150C013940FB72FB7A9B08DBB21A46FB68043253F80E
S3150C0139502220FB7A03F00303DB00F82101FA03F3BF
S3150C013960DB43F97A8908C9B2084602EA0301FB6806
S3150C013970021D43F82210FB685A6FFB7A5B00032188
S3150C01398001FA03F3DB431A40FB685A67FB683A4AB0
S3150C013990934203D0FB68394A93420AD1FB681A6EEB
S3150C0139A0FB7A012101FA03F3DB431A40FB681A6621
S3150C0139B041E07B681B785BB2002B3CDA7B685A686A
S3150C0139C0FB7A9A40FB685A60FB7ADB08DBB21A4633
S3150C0139D0FB68103253F82220FB7A03F007039B0095
S3150C0139E0072101FA03F3DB43F97AC908C9B2084680
S3150C0139F002EA0301FB6800F1100243F82210FB7A7C
S3150C013A00DB08DBB21A46FB68103253F822207B68BE
S3150C013A101B7A1946FB7A03F007039B0001FA03F3A1
S3150C013A20F97AC908C9B2084642EA0301FB6800F1F2
S3150C013A30100243F82210FB7A9B08DBB21A46FB688C
S3150C013A40043253F822207B681B781946FB7A03F063
S3150C013A500303DB0001FA03F3F97A8908C9B20846B4
S3150C013A6042EA0301FB68021D43F8221000BF14371A
S3150C013A70BD465DF8047B7047008E0248008F0248F4
S3150C013A8080B400AF034B1B681846BD465DF8047B3A
S3150C013A90704700BFC0FF002080B485B000AF7860CE
S3150C013AA07B681B0FFB607B6823F07043BB60FA6875
S3150C013AB013465B0013449B001A46054B1344BA6824
S3150C013AC01A6000BF1437BD465DF8047B704700BF12
S3150C013AD01444005080B485B000AF78607B681B0F2E
S3150C013AE0FB607B6823F07043BB60FA6813465B008E
S3150C013AF013449B001A46084B13441A68BB681340BF
S3150C013B00002B14BF01230023DBB218461437BD4624
S3150C013B105DF8047B704700BF0C44005080B500AFC4
S3150C013B20FFF7AEFF0246044B5B6903F0010322FA71
S3150C013B3003F3184680BD00BF0046005080B483B025
S3150C013B4000AF0346FB71044AFB79536000BF0C3787
S3150C013B50BD465DF8047B70470046005080B485B0C5
S3150C013B6000AF78607B681B0FFB607B6823F07043AA
S3150C013B70BB60FA6813465B0013449B001A46054B5F
S3150C013B801344BA681A6000BF1437BD465DF8047B4E
S3150C013B90704700BF4846005080B485B000AF7860CE
S3150C013BA07B681B0FFB607B6823F07043BB60FA6874
S3150C013BB013465B0013449B001A46084B13441A68C0
S3150C013BC0BB681340002B14BF01230023DBB218463C
S3150C013BD01437BD465DF8047B704700BF4046005064
S3150C013BE080B483B000AF78607B68D3F8C43103F43A
S3150C013BF04073002B0CBF01230023DBB218460C3794
S3150C013C00BD465DF8047B704780B483B000AF786025
S3150C013C10084611461A460346FB700B46BB70134603
S3150C013C207B70FA78BB781B0403F47F031A437B7809
S3150C013C301B061A437B68C3F8C42100BF0C37BD466B
S3150C013C405DF8047B704780B483B000AF78607B6805
S3150C013C501B6843F040027B681A6000BF0C37BD46F7
S3150C013C605DF8047B704780B483B000AF78607B68E5
S3150C013C701B6823F040027B681A6000BF0C37BD46F7
S3150C013C805DF8047B704780B483B000AF786039600F
S3150C013C903A687B68934238BF134618460C37BD46C3
S3150C013CA05DF8047B704780B483B000AF78603960EF
S3150C013CB03A687B68934228BF134618460C37BD46B3
S3150C013CC05DF8047B7047000080B590B000AF78605A
S3150C013CD039600C23FB630C23BB6300237B63012339
S3150C013CE03B6300237B610023FB6242F21073BB62D0
S3150C013CF00123FB6366E03B681A6813469B00134479
S3150C013D005B001A46FB6BB2FBF3F33B613B685B68EA
S3150C013D103A69B2FBF3F37B62796A5D4BA3FB012330
S3150C013D20DA0813469B0013445B00CA1A052A09D903
S3150C013D307B6A574AA2FB0323DB087B627B6A01334E
S3150C013D407B6205E07B6A524AA2FB0323DB087B629A
S3150C013D507B6A002B0AD07A6A13469B0013445B00DC
S3150C013D601A463B69B3FBF2F33B6207E03B69484AEF
S3150C013D70A2FB0323DB083B6201237B623B685B6886
S3150C013D803A6A9A4205D33B685B683A6AD31AFB6175
S3150C013D9004E03B685A683B6AD31AFB617B6A142BB5
S3150C013DA00DD8BA6AFB699A4209D9FB6B7B637B6AAC
S3150C013DB0FB62FB69BB62FB69B3F57A7F06D3FB6BCE
S3150C013DC00133FB63FB6B402B95D900E000BF42F23C
S3150C013DD01073BB624023BB632DE0BB6B013342F214
S3150C013DE0107203FB02F2FB6AB2FBF3F3FB603B6856
S3150C013DF01B891A46FB68934206D33B681B891A46F4
S3150C013E00FB689B1ABB6105E03B681B891A46FB687C
S3150C013E10D31ABB61BA6ABB699A4203D9BB6B3B63C2
S3150C013E20BB69BB623B681B891A46FB68934206D386
S3150C013E30BB6B013BBB63BB6B022BCED800E000BF57
S3150C013E40FA6A3B6BD31A013B7B617868FFF7FBFE81
S3150C013E507B69013B1B0303F4E0423B685B89013B35
S3150C013E609B01DBB21A433B6B013B1B0203F47063F0
S3150C013E701A437B6B013B03F03F031A437B681A61C0
S3150C013E807868FFF7F0FE00BF4037BD4680BD00BF26
S3150C013E90CDCCCCCC80B582B000AF78600B46FB7034
S3150C013EA01346BB7000BF7868FFF79AFE034683F092
S3150C013EB00103DBB2002BF6D1FB780133DBB2BA7806
S3150C013EC002217868FFF7A0FE00BF0837BD4680BD0A
S3150C013ED080B582B000AF78600B48FFF73FFE0A4809
S3150C013EE0FFF7DAFD7B681B6823F001027B681A6019
S3150C013EF000BF7B681B6803F00203002BF9D100BFDE
S3150C013F0000BF0837BD4680BD1000001080B58CB0CF
S3150C013F1000AF78603960FFF701FEF8627868FFF749
S3150C013F20D7FFFA6A3B68B2FBF3F3C3F58063194614
S3150C013F300020FFF7A8FE034640F2FF311846FFF7B3
S3150C013F40B2FEB862BB6AC3F58063FA6AB2FBF3F3DD
S3150C013F507B623B689B093B62FB6A9B09FB613B6A83
S3150C013F609A02FB69B2FBF3F340F2FF311846FFF7F5
S3150C013F709AFEB861FB69BA6902FB03F39B0A7B6182
S3150C013F807B699B017B613A687B6AD21A39687B69CA
S3150C013F90CB1A9A4294BF01230023FB74FB7C002BA2
S3150C013FA001D0BB6A00E0BB69FB60FB7C002B01D036
S3150C013FB0012300E00223FB727B68DB6823F4434395
S3150C013FC023F0FF037A68D3607B68DA68FB7A99037E
S3150C013FD0FB680B431A437B68DA6000BF3037BD467A
S3150C013FE080BD80B483B000AF786039607B681B6894
S3150C013FF09B6903F00053B3F1005F0DD07B681B681E
S3150C0140009B6903F060413B689B0423F060427B682B
S3150C0140101B680A439A610BE07B681B689B6903F07A
S3150C01402060413B6823F060427B681B680A439A61D6
S3150C0140303B6823F060417A68536861F31C03536053
S3150C01404000BF0C37BD465DF8047B704780B586B062
S3150C01405000AF78607B681B6803F13843A3F5A8337E
S3150C0140605B097B617B695B095A037B691B0203F460
S3150C014070F85313433B617B681B689A687B681B6822
S3150C01408022F47F429A607B681B6899687B681B687F
S3150C0140903A690A439A607B68DB7903F02003DBB249
S3150C0140A0002B06D07B68DB7903F02003DBB2002BF7
S3150C0140B060D07B681B7E002B03D07B681B7E012B9B
S3150C0140C058D17B681B682022DA617B68DB7903F0A7
S3150C0140D02003DBB2002B28D17B685B68FB60FB6895
S3150C0140E003F06043FB607B685B68C3F31C039B04B2
S3150C0140F01A46FB681343FB607B681B68FA689A6176
S3150C0141007B689B68FB60FB6803F06043FB607B6824
S3150C0141109B68C3F31C039B041A46FB681343FB60A1
S3150C0141207B681B68FA68DA6009E07B681B687A6849
S3150C01413052689A617B681B687A689268DA607B6858
S3150C0141401B7E012B0CD1786800F01CF87B681B6870
S3150C0141504FF00062DA617B681B68084ADA6109E094
S3150C0141607B681B684FF40062DA617B681B68044A42
S3150C014170DA61FFE700BF1837BD4680BDC0002006D7
S3150C0141804006A00080B485B000AF78600323FB73B2
S3150C0141907B681B7E012B22D17B681B682022DA618E
S3150C0141A07B681B681B6823F070617B681B7B1B0695
S3150C0141B003F070627B681B680A431A607B681B6894
S3150C0141C07A6812691A617B681B687A6852695A6146
S3150C0141D07B681B68064ADA610023FB7301E0032343
S3150C0141E0FB73FB7B18461437BD465DF8047B7047A1
S3150C0141F04000280080B487B000AF78600123FB75BE
S3150C0142007B681B68DB695B0903F001033B617B6817
S3150C0142101B68DB691B0A03F00103FB603B69002B7E
S3150C01422002D10423FB750CE0FB68012B02D102239E
S3150C014230FB7506E07B681B684FF0E062DA610023D0
S3150C014240FB75FB7D18461C37BD465DF8047B704734
S3150C01425080B487B000AF78600123FB750023BB7572
S3150C01426000237B757B681B68DB69DB0A03F00103A2
S3150C0142703B617B681B68DB699B0803F00103FB60F0
S3150C0142803B69002B02D00323FB75A3E0FB68012BD2
S3150C01429002D10223FB759DE07B681B680822DA615B
S3150C0142A07B681B689B6903F00053002B3DD17A6830
S3150C0142B0D3796FF34513D3717B681B689B699B0C90
S3150C0142C023F06043C3F30A017A68536861F31C0354
S3150C0142D053607B681B68DB685B0F03F00103D9B283
S3150C0142E07A68D37A61F34513D3727B68DB7A03F070
S3150C0142F02003DBB2002B0DD07B681B68DB689B0CA3
S3150C01430023F06043C3F30A017A68936861F31C03D3
S3150C01431093602FE07B681B68DB6823F060417A6849
S3150C014320936861F31C03936024E07A68D37943F0B4
S3150C0143302003D3717B681B689B6923F060417A6803
S3150C014340536861F31C0353607B681B68DB6823F0BD
S3150C01435060417A68936861F31C0393607B681B6800
S3150C014360DB685B0F03F00103D9B27A68D37A61F388
S3150C0143704513D3727B681B681B681B0EDBB203F0FB
S3150C0143800F03DAB27B681A737B681B681A697B6840
S3150C0143901A617B681B685A697B685A617B681B6862
S3150C0143A0DB699B08DBB203F00103BB757B681B68F9
S3150C0143B0DB69DB08DBB203F001037B75BB7D002BEC
S3150C0143C003D07B7D002B7FF467AF7B6800221A76C6
S3150C0143D00023FB75FB7D18461C37BD465DF8047B37
S3150C0143E07047000080B582B000AF78607B68154AD3
S3150C0143F0934203D07B68144A934203D1134800F0CD
S3150C0144008DF90AE07B68124A934203D07B68114A04
S3150C014410934202D1104800F081F97B680322DA60DD
S3150C01442000BF7B68DB6803F00103002BF9D07B68C6
S3150C0144301B6C23F00F027B681A6400BF0837BD465C
S3150C01444080BD00BF0000034000020340080003408A
S3150C01445000000248000202480800024880B58EB0EE
S3150C01446000AFF860B9607A60BB68632B58D97B687A
S3150C014470002B55D0FFF752FB03462E4AA2FB032312
S3150C0144805B093B62BB682B4AA2FB03235B09BB603E
S3150C0144900123FB620123BB6240F2FF337B6240F2D4
S3150C0144A0FF333B6322E03B6A3A6B03FB02F2BB68C8
S3150C0144B0796801FB03F3B2FBF3F3FB61FB699B0A1E
S3150C0144C0BB61FB69C3F309037B61BB69B3F5806F00
S3150C0144D009D27A697B6A9A4205D27B697B62BB698E
S3150C0144E0BB623B6BFB623B6B013B3B633B6B002B48
S3150C0144F0D9D1FB6A43F40042FB681A61FB685A691D
S3150C0145000D4B13407A68013A92021A43BB6A013B7E
S3150C0145101B041A43FB685A61002387F8373002E003
S3150C014520012387F8373097F8373018463837BD46A8
S3150C01453080BD00BF1F85EB51EF8000FC80B58CB0B0
S3150C01454000AFF860B9607A60FFF7E8FA03463B62A0
S3150C014550BB687A6802FB03F3FB610123FB623A6ACF
S3150C014560FB699A425FDD3A6AFB6992FBF3F3BB6224
S3150C01457010E0FB6A0133FB62BB687A6802FB03F34A
S3150C0145801A46FB6A02FB03F3FB613A6AFB6992FB6F
S3150C014590F3F3BB62BB6A40F2FE329342E9D83A6A44
S3150C0145A07B68B96A01FB03F3F96A01FB03F3B2FBFE
S3150C0145B0F3F3BB613A6ABB6A0133796801FB03F316
S3150C0145C0F96A01FB03F3B2FBF3F37B61BA687B690E
S3150C0145D0D31A83EAE372A2EBE372B968BB69CB1A0D
S3150C0145E0002BB8BF5B429A4202DABB6A0133BB624B
S3150C0145F0BB6AC3F58063BB62BB6A43F48042FB684A
S3150C0146001A61FB685A690C4B13407A68013A92029B
S3150C0146101A43FB6A013B1B041A43FB685A610023CC
S3150C01462087F8273002E0012387F8273097F82730DF
S3150C01463018463037BD4680BDEF8000FC80B485B08E
S3150C01464000AFF860B9603B601346FB71FB68D3F8A9
S3150C014650083123F0E062FB68C3F80821FB68D3F844
S3150C0146600821094B13403A681102BA681143FA79C9
S3150C01467012060A431A43FB68C3F8082100BF143714
S3150C014680BD465DF8047B7047C0C0FFF880B485B0A9
S3150C01469000AFF860B9603B601346FB71FB68D3F859
S3150C0146A00C3123F0E062FB68C3F80C21FB68D3F8EC
S3150C0146B00C210A4B13403A681102BA681143FA7974
S3150C0146C012060A43134343F08052FB68C3F80C21CC
S3150C0146D000BF1437BD465DF8047B7047C0C0FFEFC1
S3150C0146E080B485B000AFF8600B467A60FB72FB684C
S3150C0146F0D3F80C21FB7A072101FA03F3DB431A40A9
S3150C014700FB7A796801FA03F31A43FB68C3F80C21A7
S3150C01471000BF1437BD465DF8047B704780B582B087
S3150C01472000AF78607B681C4A934218D14FF4006045
S3150C014730FFF714FA00BF4FF40060FFF72DFA03469A
S3150C014740002BF8D14FF40060FFF7A6F900BF4FF428
S3150C0147500060FFF7BFF90346002BF8D117E07B6821
S3150C0147600E4A934213D10E48FFF7F8F900BF0C48D5
S3150C014770FFF712FA0346002BF9D10948FFF78CF91A
S3150C01478000BF0748FFF7A6F90346002BF9D100BF76
S3150C0147900837BD4680BD00BF08000340080002482B
S3150C0147A08000001080B582B000AF786039607868FF
S3150C0147B0FFF718FE3B685B79002B12D13B681B791E
S3150C0147C0002B07D03B681B68022219467868FFF755
S3150C0147D0B5FE06E03B681B68022219467868FFF7AE
S3150C0147E03DFE7B680F4A5A637B684FF4A2629A635B
S3150C0147F03B685B79002B07D13B689B7943F00B0334
S3150C014800DBB21A467B68DA637B684FF0FF32DA64F7
S3150C0148103B681B891A467B681A6400BF0837BD467C
S3150C01482080BD00BF02013F0780B584B000AF786040
S3150C01483039600123FB73FFF771F903465B083A688C
S3150C0148409A4209D8022239687868FFF707FE0346AF
S3150C014850002B01D10023FB73FB7B18461037BD4699
S3150C01486080BD000080B500AF2020FFF767F9044832
S3150C014870FFF774F90248FFF70FF900BF80BD00BFBF
S3150C0148800200002080B582B000AF7860FFF7EAFF26
S3150C014890074A7B689B685360054A7B685B681361B2
S3150C0148A0034A7B681B68536100BF0837BD4680BD50
S3150C0148B00080005080B400AFBFF34F8F00BF064B92
S3150C0148C0DB6803F4E0620449044B1343CB60BFF38A
S3150C0148D04F8F00BF00BFFDE700ED00E00400FA05B5
S3150C0148E080B400AF054B5B68044A23F001035360A7
S3150C0148F000BFBD465DF8047B704700BF00800050C9
S3150C01490080B400AF034B044A9A6000BFBD465DF804
S3150C014910047B704700800050FECAADAB80B483B0F7
S3150C01492000AF78600B46FB707B68DB6823F00702EF
S3150C014930FB7803F007031A437B68DA6000BF0C3778
S3150C014940BD465DF8047B704780B483B000AF7860D8
S3150C0149507B685B691B0ADBB218460C37BD465DF8F2
S3150C014960047B704780B483B000AF78607B685B686A
S3150C01497018460C37BD465DF8047B704780B483B08E
S3150C01498000AF78607B681B6843F040027B681A6055
S3150C01499000BF0C37BD465DF8047B704780B483B00D
S3150C0149A000AF78607B681B6823F040027B681A6055
S3150C0149B000BF0C37BD465DF8047B704780B483B0ED
S3150C0149C000AF78607B681B6843F001027B681A6054
S3150C0149D000BF0C37BD465DF8047B704780B483B0CD
S3150C0149E000AF78607B681B6823F001027B681A6054
S3150C0149F000BF0C37BD465DF8047B704780B483B0AD
S3150C014A0000AF78607B681B68DB6918460C37BD46BE
S3150C014A105DF8047B704780B483B000AF7860396071
S3150C014A207B681B683A68DA6100BF0C37BD465DF8D6
S3150C014A30047B704780B483B000AF78607A68D37A10
S3150C014A4043F02003D3727B681B68DA687B681B68AA
S3150C014A5042F00052DA6000BF0C37BD465DF8047BAC
S3150C014A60704780B500AFFEF709FF034603F001035B
S3150C014A70002B14BF01230023DBB2184680BD0000B6
S3150C014A8080B584B000AF0023FB6001F0D7F801F0CC
S3150C014A90DDF801F01BFAFCF741FE4FF480314FF0C3
S3150C014AA0006001F0ADFFB860B868FCF7DDFDFCF7FE
S3150C014AB0F1FBFDF78DFB03461A46484B1A70474B23
S3150C014AC01B78002B4AD038E001F040FA03460A3332
S3150C014AD0FB6000BF01F03AFA0246FB689342F9DC2F
S3150C014AE0FDF74AF903461A463D4B1A703C4B1B78A7
S3150C014AF083F00103DBB2002B01D0FDF71DF9FDF7A5
S3150C014B00ABF803461A46374B1A70364B1B7883F0B3
S3150C014B100103DBB2002B01D0FDF77EF8FDF72AFB72
S3150C014B202F4B1B781A462F4B1B781340002B14BFA7
S3150C014B3001230023DAB22C4B1A702C4B1B68013360
S3150C014B402A4A1360294B1B68B3F57A7F06D2264B8A
S3150C014B501B7883F00103DBB2002BB5D11F4B1B78FD
S3150C014B601846FCF7C1FC1E4B1B781846FCF7CCFC0F
S3150C014B701C4B1B781846FCF7D7FC0020FCF7F4FC01
S3150C014B800020FCF701FDFDF70FF903461846FCF76B
S3150C014B907BFDFDF787F803461846FCF785FD0020DB
S3150C014BA0FCF792FD0020FCF79FFDFDF761F803462B
S3150C014BB0FB80FB881846FCF78FFB0346BB80BB8842
S3150C014BC0DBB2184600F026F901F09EF800F0FAF86F
S3150C014BD001F05CF800F052F8FCE700BF3CDFFF1F68
S3150C014BE034DFFF1F35DFFF1F36DFFF1F38DFFF1FE7
S3150C014BF080B500AF044B01221A7000F02DF800F0BD
S3150C014C0005F800BF80BD00BFC9D6FF1F80B500AF38
S3150C014C1000F0C6FB0346002B15D10C4B1B78002B61
S3150C014C2012D001F093F90146094B1B6803F5FA7290
S3150C014C30084B1B681344994206DB044B00221A707D
S3150C014C4000F072FC00E000BF80BD00BFC9D6FF1F9B
S3150C014C50D0D6FF1FCCD6FF1F80B500AF054B1B78F6
S3150C014C60002B04D001F072F90346034A136000BF0E
S3150C014C7080BD00BFC9D6FF1FCCD6FF1F80B500AFC4
S3150C014C8000F0A5FB01F04CF900F01EFB01F05EF9FA
S3150C014C900246424B1B689A4212DD00F061FA01F0A2
S3150C014CA0ABF9034683F00103DBB2002B01D0FCF711
S3150C014CB0C1FD01F04BF9034603F57A73374A1360CC
S3150C014CC0FFF7A4FFFCF7AFFD354B1B78002B63D028
S3150C014CD0344B1B7883F00103DBB2002B0ED0314B26
S3150C014CE001221A7001F032F9034603F5DB1303F5C1
S3150C014CF0BA532D4A13600020FCF78AFD01F026F900
S3150C014D0002462A4B1B689A4246DD01F075F90346A9
S3150C014D1083F00103DBB2002B15D0FCF71FFB244BF0
S3150C014D201888234B5988224B9A88214BDB88FCF730
S3150C014D30E7FAFCF759FBFCF779FBFCF7CDFBFCF723
S3150C014D40F9FCFCF777FD01F057F9034683F00103F3
S3150C014D50DBB2002B01D0FCF766FD01F0F7F8034638
S3150C014D6003F57A73114A136001F046F90346002BD9
S3150C014D7009D001F0EBF8034603F5DB1303F5BA533F
S3150C014D80094A136008E001F0E1F80246064B1B687C
S3150C014D909A4201DDFCF755FD00BF80BD20D7FF1FF0
S3150C014DA019D7FF1F24D7FF1F28D7FF1F1CD7FF1F9B
S3150C014DB0A002000880B400AF00BFBD465DF8047BBD
S3150C014DC07047000080B500AF00F01BFB00F0F9FA4C
S3150C014DD001F07CF801F0BAF803460B4A136001F0B6
S3150C014DE0B5F80346094A136001F0B0F80346084AC0
S3150C014DF0136001F0F5F800F05BFF00F057FAFFF7CE
S3150C014E00F7FE00BF80BD00BF1CD7FF1F28D7FF1FB1
S3150C014E1020D7FF1F80B483B000AF0346FB71FB792B
S3150C014E2003F00F03DAB2044B1A7000BF0C37BD4600
S3150C014E305DF8047B704700BF18D7FF1F80B588B09B
S3150C014E4000AFFEF76BFE0346FB6104E0FB695B00FA
S3150C014E50FB6100F0BCFAFB695F4A9342F6DB06E0A4
S3150C014E60FB69DA0F13445B10FB6100F0B0FAFB69C6
S3150C014E705A4A9342F4DCFB6919465948FFF746F83E
S3150C014E80FB697B60574BBB604FF4FA53BB81012323
S3150C014E90FB813B1D19465448FEF716FF5248FFF796
S3150C014EA06DFD5148FFF78AFD504B514A1A604F4A26
S3150C014EB0D379022161F38713D3714E4B7B617B69E5
S3150C014EC023F000437B617B6923F06041474A5368B9
S3150C014ED061F31C0353607B6923F06041434A936879
S3150C014EE061F31C039360414AD37943F02003D371D8
S3150C014EF03E48FFF79FFD3D4B08221A730023FB76B4
S3150C014F0007E0FB7E394A134400221A74FB7E0133F7
S3150C014F10FB76364B1B7BFA7E9A42F2D3334B01223C
S3150C014F201A763248FFF792F8002200212C48FEF738
S3150C014F30B1FF314B314A1A602F4AD379022161F301
S3150C014F408713D3712E4B1B781B021A462D4B134319
S3150C014F503B613B6923F000433B613B6923F06041B4
S3150C014F60254A536861F31C035360234A93686FF017
S3150C014F70604161F31C0393601F4AD37943F020030C
S3150C014F80D3711D48FFF756FD1B4B08221A730023DC
S3150C014F90FB7607E0FB7E184A134400221A74FB7E4B
S3150C014FA00133FB76144B1B7BFA7E9A42F2D3124BDE
S3150C014FB000221A761048FFF749F801220021084809
S3150C014FC0FEF768FF0848FFF7E9FC0748FFF706FDFF
S3150C014FD000BF2037BD4680BD001BB700000E27075A
S3150C014FE00040014820A1070000420148D8D6FF1F06
S3150C014FF00050014801100C94F8D6FF1F20500148AF
S3150C01500018D7FF1F01000C9480B588B000AFF8606B
S3150C015010B9601346FB71FB6823F47062234B1B7852
S3150C0150201B021343BB61BB6919462148FEF7D9FF25
S3150C0150301F4AFB7913730023FB770BE0FB7FBA68DE
S3150C0150401A44FB7F11781A4A13440A461A74FB7FD9
S3150C0150500133FB77164B1B7BFA7F9A42EED314482E
S3150C015060FFF790F802211248FFF7D5FC1048FFF71D
S3150C015070C1F800F06BFF034632337B6107E000F0A9
S3150C015080A6F900F063FF02467B69934208DB0848E8
S3150C015090FFF7B4FC034603F00203002BEFD000E04C
S3150C0150A000BF00BF2037BD4680BD00BF18D7FF1F0C
S3150C0150B0D8D6FF1F90B585B000AF78603960002354
S3150C0150C0BB732048FFF79AFC034603F00103002B40
S3150C0150D023D01C48FFF7BCF80346002B18D1194BFB
S3150C0150E01A7B3B681A700023FB730CE0FA7BFB7B83
S3150C0150F079680B4413490A44127C1A700123BB7359
S3150C015100FB7B0133FB730F4B1B7BFA7B9A42EDD373
S3150C01511001210C48FFF77FFC0EE000F097FF0346D8
S3150C015120002B09D000F012FF044600F083FF034662
S3150C0151309C4201DD00F014FFBB7B18461437BD46BB
S3150C01514090BD00BFF8D6FF1F80B500AF0822002125
S3150C015150024803F0BFFD00BF80BD00BFA0E1FF1FE9
S3150C01516080B582B000AF4E48FFF7FCFB034603F057
S3150C0151708003002B14BF01230023DBB2BB7148480B
S3150C015180FFF7E2FB03467B714548FFF7EBFB034652
S3150C01519003F00103002B14BF01230023FB71BB7920
S3150C0151A0DBB2002B2DD07B79DBB2FF2B29D13D4B0A
S3150C0151B05B78FF2B05D03B4B5B780133DAB2394B6D
S3150C0151C05A70384B1B78FF2B05D0364B1B780133A5
S3150C0151D0DAB2344B1A703248FFF7D0FB304B5B69AD
S3150C0151E02F4A23F4A85353612D4B5B682C4A23F0A9
S3150C0151F0200353602A48FFF7E1FB2948FFF7CEFB52
S3150C0152004AE0BB79DBB2002B17D07B79DBB2002BE2
S3150C01521013D1244B1B79FF2B05D0224B1B79013360
S3150C015220DAB2204B1A711E48FFF7A8FB1C48FFF790
S3150C015230D5FB1B48FFF7B2FB2EE07B79DBB27E2B4D
S3150C0152400ED9184BDB78FF2B05D0164BDB780133C7
S3150C015250DAB2144BDA7002211348FFF7DCFB1BE0C0
S3150C015260FB79002B18D00F4B9B78FF2B05D00D4BE0
S3150C0152709B780133DAB20B4B9A70FFF7DFFD0848C6
S3150C015280FFF77CFB064B5B68054A23F02003536052
S3150C0152900348FFF783FBFFE700BF0837BD4680BD18
S3150C0152A000420148A0E1FF1FD8D6FF1F80B500AF11
S3150C0152B000F078FEFFF7C2FD024B01221A7000BF07
S3150C0152C080BD00BF84D0FF1F80B582B000AFFB1D2F
S3150C0152D019460948FFF7EEFE0346002B07D0074B8C
S3150C0152E001221A70FB791946034800F0C9FE00BF6A
S3150C0152F00837BD4680BD00BFACE1FF1F84D0FF1F40
S3150C01530080B400AF00BFBD465DF8047B704700005A
S3150C01531080B582B000AF78600B467B80084B1B785A
S3150C015320012B06D17B88DBB21A4679680548FFF753
S3150C0153306BFE00F071FE00BF0837BD4680BD00BF95
S3150C01534084D0FF1F01100C9480B483B000AF084BBE
S3150C0153501B78012B02D10823FB8002E04023FB8042
S3150C01536000BFFB8818460C37BD465DF8047B7047B9
S3150C01537084D0FF1F80B483B000AF084B1B78012B80
S3150C01538002D10823FB8002E04023FB8000BFFB888F
S3150C01539018460C37BD465DF8047B704784D0FF1F59
S3150C0153A080B582B000AF0023FB7100F025FE0346E9
S3150C0153B0002B01D00123FB71FB7918460837BD463A
S3150C0153C080BD80B500AF00F021FC00BF80BD80B56B
S3150C0153D000AF00F02DFC00BF80BD80B400AF72B6EB
S3150C0153E000BFBD465DF8047B704780B400AF62B662
S3150C0153F000BFBD465DF8047B704780B500AFFFF773
S3150C01540059FA80B500AFFFF7E8FF00BF80BD000079
S3150C01541090B585B000AF00F0DDF90346FB60FB6883
S3150C015420DC6B3C21F868FCF705FD03469C4271D107
S3150C015430FB681A883B4B1B889A4249D1FB685A88F0
S3150C015440384B5B889A4243D1FB689A88354B9B88CB
S3150C0154509A423DD10120FCF7A7F80120FCF7C4F8CC
S3150C0154600120FCF7B1F80120FCF7CEF80120FCF77E
S3150C015470DBF80120FCF7E8F8FCF78AFC03467B8194
S3150C0154807B89002B0ED07B894FF6FF72934209D094
S3150C015490FB68DB887A899A4204D00020FCF7C4F8B1
S3150C0154A000233BE0FB685B6A1A46FB681B6A1946DC
S3150C0154B01046FCF7BFFC7860FB689B6B7A689A42D6
S3150C0154C004D00020FCF7C0F8002327E0012325E0D7
S3150C0154D0FB681B88012B03D10120FCF785F802E040
S3150C0154E00020FCF781F8FB685B88032B03D10120B4
S3150C0154F0FCF76AF802E00020FCF766F8FB689B886B
S3150C015500002B03D10120FCF77FF806E00120FCF704
S3150C0155107BF802E00020FCF747F800231846143705
S3150C015520BD4690BDA002000880B584B000AF002333
S3150C015530FB60FFF76DFF0346002B16D000F04AF90E
S3150C0155400346BB60BB685B6A0433FB602A4B0022D3
S3150C0155501A702A4B7B60BB68DA697B68DB699A42F5
S3150C01556007D1254B01221A7042E0234B01221A70F6
S3150C0155703EE000F041FD034683F00103DBB2002B54
S3150C01558013D0FBF7EBFE1E4B18881D4B59881C4B91
S3150C0155909A881B4BDB88FBF7B3FEFBF725FFFBF762
S3150C0155A045FFFBF799FFFCF7C5F800F026FB034610
S3150C0155B083F00103DBB2002B19D1FFF7A1FE00F03A
S3150C0155C09DFC00F099FB034619460E4B1B681A46C7
S3150C0155D021F0604323F07F031360FB681B683B607B
S3150C0155E0FFF703FFFFF77CF93B68984700E000BF24
S3150C0155F01037BD4680BD00BF19D7FF1FA002000C96
S3150C015600A002000808ED00E080B586B000AFF86096
S3150C015610B9601346FB80BB687B61FB683B6109E0A3
S3150C0156207A69531C7B613B69591C396112781A7072
S3150C015630FFF7CDFEFB885A1EFA80002BF0D100BF76
S3150C01564000BF1837BD4680BD80B400AF064B4FF086
S3150C015650FF321A60054B4FF0FF321A6000BFBD4690
S3150C0156605DF8047B704700BF2CD7FF1F30DBFF1F93
S3150C01567080B586B000AFF860B9607A60F86800F062
S3150C015680A7FAF860BB685A1E1C4B4FF480211944CB
S3150C015690FB68CB1A013B9A4201D900232AE0F86830
